:020000040000FA
:06000000BFEF35F0120015
:020006000000F8
:060008000FEF00F01200F2
:02000E001200DE
:0800180029EF01F01200DACF1C
:10002000E4FFE2CFDAFFE9CFE4FFEACFE4FFF6CF67
:10003000E4FFF7CFE4FFF5CFE4FFF3CFE4FFF4CF25
:10004000E4FFFACFE4FF00EE00F0020EE80403E361
:10005000EECFE4FFFBD700EE02F0020EE80403E36C
:10006000EECFE4FFFBD7E6529D50200B35E09E50CB
:10007000200B32E001EC35F00001C76F0001C551E3
:1000800010E10001C9510001C75D0BE1AC96C7C08A
:10009000CCF000010F0EE06F0001EB930001EB8B41
:1000A0001BD000010001EB51800B16E100010001A3
:1000B000EB51200B11E00001C52B0001C551EA6A8C
:1000C000CC0FE96E000EEA22C7C0EFFF090E000157
:1000D000C55D02E10001EB8FA350200B50E0A4505E
:1000E000200B4DE0E2EC34F00001626F00010001F2
:1000F0009551200B0FE1000164510001625D0AE19E
:100100000001958B0001280E8A6F0001969562C050
:1001100067F035D0000100019551800B30E10001FE
:1001200000019551200B2BE00001602B0001605174
:10013000EA6A670FE96E000EEA2262C0EFFF030E63
:100140000001605D0BE1060E0001695D04E0150E23
:100150000001695D03E10001958F11D0070E0001D8
:10016000605D0DE13C0E0001695D03E10001958FCA
:1001700006D00001959B0001959F0001606B9D508A
:10018000100B20E09E50100B1DE00001C651000135
:10019000D880C8550FE30001C851EA6AD60FE96E4E
:1001A000000EEA22EF50E66E85EC35F0E5520001D4
:1001B000C82B08D0ADA206D09D988B9A0001EB9970
:1001C0000001C86BA350100B20E0A450100B1DE0E1
:1001D000000161510001D88063550FE300016351B4
:1001E000EA6A6F0FE96E000EEA22EF50E66E6EECDF
:1001F00035F0E5520001632B08D0A8A206D0A398E1
:100200008D90000195990001636BE55200EE03F0BB
:10021000020EE80403E3E5CFEDFFFBD700EE01F0AB
:10022000020EE80403E3E5CFEDFFFBD7E5CFFAFFCD
:10023000E5CFF4FFE5CFF3FFE5CFF5FFE5CFF7FF1F
:10024000E5CFF6FFE5CFEAFFE5CFE9FFE5CFDAFF3F
:100250001100D8CFE4FFE0CFE4FFE46EDACFE4FF93
:10026000E2CFDAFFE652F250200B3AE0F250040BF4
:1002700037E0F294060ED66E0101542B000E552382
:100280000001978101010B2B0A0E01010B5D0AE1B0
:1002900001010B6B0101DB810101518101015281DF
:1002A000000197830001E05105E00001E007000133
:1002B000EB9302D00001EB830001895105E00001BE
:1002C00089070001969302D00001968300018A51AC
:1002D00005E000018A070001969502D0000196858D
:1002E000E552E5CFDAFFE550E5CFE0FFE5CFD8FFF7
:0202F0001000FC
:0E02F2009B8C896A8A6A100E8B6E7E0E8D6E52
:100300008E6A8F6A816A926A936AC00E946E966A48
:10031000976A060E986ED30EE66E20EC35F0E55225
:10032000F194D08EF28CF28E70EC2DF071EC2FF0F7
:100330007BEC31F077EC29F0DBEC35F09CEC35F020
:1003400012000101586B0101576B0001020E646F2E
:100350000101050E0D6F080EE66E1E0EE66EB8EC7E
:1003600019F0E552E5520101016F01C100F1BDEC48
:1003700016F0DBEC17F00101528F010151830001EF
:10038000020E646F0101050E0D6F99C19BF19AC1B8
:100390009CF199C19DF19AC19EF1FA0EE66E57EC5F
:1003A00035F0E552FA0EE66E57EC35F0E5521200E4
:1003B000A0DFC7DF0DD83BEC07F0AAD85FEC07F051
:1003C00006EC0CF01FEC0CF0A8EC11F0F3D71200C7
:1003D000010152B102D09BD002D001015291010122
:1003E0000E5105E001010E070101509102D00101FB
:1003F000508101010F5105E001010F0701015093E8
:1004000002D0010150830101105105E001011007E4
:100410000101509502D0010150850101115105E003
:10042000010111070101509702D00101508701011C
:10043000125105E0010112070101509902D001019A
:1004400050890101135105E0010113070101509B7F
:1004500002D00101508B0101145105E00101140784
:100460000101509D02D00101508D0101155105E09F
:10047000010115070101509F02D00101508F0101B8
:10048000165105E0010116070101529902D0010140
:1004900052890101175105E0010117070101529B23
:1004A00002D00101528B01013A513B1107E00101D9
:1004B0003A07000E3B5B0101519702D001015187C1
:1004C00001013C513D1107E001013C07000E3D5B7D
:1004D0000101519902D0010151890101405141119D
:1004E00007E001014007000E415B0101529502D077
:1004F0000101528501013851391107E00101380726
:10050000000E395B0101529702D00101528712009F
:1005100085EC29F0C5EC31F0E0EC35F0A3EC35F0DA
:1005200001014A51010B026E00019151010B025C65
:1005300011E000010001915101014A91010B01E01C
:100540004A81000191A103D001014B8102D0010138
:100550004B9102D001014B9101014A51020B01E084
:10056000010E026E00019151020B01E0010E025CCE
:1005700011E000010001915101014A93020B01E0D9
:100580004A83000191A303D001014B8302D00101F2
:100590004B9302D001014B9301014A51040B01E03E
:1005A000010E026E00019151040B01E0010E025C8C
:1005B00011E000010001915101014A95040B01E095
:1005C0004A85000191A503D001014B8502D00101AC
:1005D0004B9502D001014B95010152B321D001018D
:1005E0004A51080B01E0010E026E00019151400BCF
:1005F00001E0010E025C11E00001000191510101D6
:100600004A97400B01E04A87000191AD03D00101F8
:100610004B8702D001014B9702D001014B9744D088
:10062000000100019151400B31E0010101015251E3
:10063000100B2CE0040E0101205D08E20101202BCB
:100640000101320E166F010152991DD0080E0101F1
:10065000205D08E20101202B0101140E166F01013B
:10066000529911D00C0E0101205D08E20101202BEE
:100670000101080E166F0101529905D00101020E09
:10068000166F0101529901014B870ED0000191BDF7
:1006900009D001014B970101206B0101166B01018B
:1006A000528902D001014B97010152B321D00101BF
:1006B0004A51100B01E0010E026E00019151100B26
:1006C00001E0010E025C11E0000100019151010105
:1006D0004A99100B01E04A89000191A903D0010158
:1006E0004B8902D001014B9902D001014B9944D0B2
:1006F000000100019151100B31E001010101525143
:10070000200B2CE0040E0101215D08E20101212BE8
:100710000101320E176F0101529B1DD0080E01011D
:10072000215D08E20101212B0101140E176F010167
:10073000529B11D00C0E0101215D08E20101212B19
:100740000101080E176F0101529B05D00101020E35
:10075000176F0101529B01014B890ED0000191B925
:1007600009D001014B990101216B0101176B0101B6
:10077000528B02D001014B9901014A51200B01E03B
:10078000010E026E00019151080B01E0010E025CA6
:1007900011E000010001915101014A9B080B01E0A9
:1007A0004A8B000191A703D001014B8B02D00101BC
:1007B0004B9B02D001014B9B01014A51400B01E0D0
:1007C000010E026E00019151800B01E0010E025CEE
:1007D00011E000010001915101014A9D800B01E0EF
:1007E0004A8D000191AF03D001014B8D02D0010170
:1007F0004B9D02D001014B9D000100019151200B46
:1008000031E0010101015051010B2CE0040E010106
:10081000185D08E20101182B0101320E0E6F010173
:1008200050911DD0080E0101185D08E20101182B3E
:100830000101140E0E6F0101509111D00C0E010137
:10084000185D08E20101182B0101080E0E6F01016D
:10085000509105D00101020E0E6F0101509101016E
:100860004D810ED0000191BB09D001014D910101D4
:10087000186B01010E6B0101508102D001014D91F5
:10088000000100019251010B31E0010101015051C1
:10089000020B2CE0040E0101195D08E20101192B85
:1008A0000101320E0F6F010150931DD0080E01019E
:1008B000195D08E20101192B0101140E0F6F0101EE
:1008C000509311D00C0E0101195D08E20101192BA2
:1008D0000101080E0F6F0101509305D00101020EB6
:1008E0000F6F0101509301014D830ED0000192B1B1
:1008F00009D001014D930101196B01010F6B010139
:10090000508302D001014D93000100019251040B6C
:1009100031E0010101015051040B2CE0040E0101F2
:100920001A5D08E201011A2B0101320E106F01015C
:1009300050951DD0080E01011A5D08E201011A2B25
:100940000101140E106F0101509511D00C0E010120
:100950001A5D08E201011A2B0101080E106F010156
:10096000509505D00101020E106F01015095010153
:100970004D870ED0000192B509D001014D970101BC
:100980001A6B0101106B0101508502D001014D97D6
:10099000000100019251080B31E0010101015051A9
:1009A000080B2CE0040E01011B5D08E201011B2B6A
:1009B0000101320E116F010150971DD0080E010187
:1009C0001B5D08E201011B2B0101140E116F0101D7
:1009D000509711D00C0E01011B5D08E201011B2B89
:1009E0000101080E116F0101509705D00101020E9F
:1009F000116F0101509701014D890ED0000192B78E
:100A000009D001014D9901011B6B0101116B01011D
:100A1000508702D001014D99000100019251200B35
:100A200031E0010101015051100B2CE0040E0101D5
:100A30001C5D08E201011C2B0101320E126F010145
:100A400050991DD0080E01011C5D08E201011C2B0C
:100A50000101140E126F0101509911D00C0E010109
:100A60001C5D08E201011C2B0101080E126F01013F
:100A7000509905D00101020E126F01015099010138
:100A80004D8D0ED0000192BB09D001014D9D010199
:100A90001C6B0101126B0101508902D001014D9DB7
:100AA000000100019251400B31E001010101505160
:100AB000200B2CE0040E01011D5D08E201011D2B3D
:100AC0000101320E136F0101509B1DD0080E010170
:100AD0001D5D08E201011D2B0101140E136F0101C0
:100AE000509B11D00C0E01011D5D08E201011D2B70
:100AF0000101080E136F0101509B05D00101020E88
:100B0000136F0101509B01014D8F0ED0000192BD6A
:100B100009D001014D9F01011D6B0101136B010102
:100B2000508B02D001014D9F000100019351010B38
:100B300031E0010101015051400B2CE0040E010194
:100B40001E5D08E201011E2B0101320E146F01012E
:100B5000509D1DD0080E01011E5D08E201011E2BF3
:100B60000101140E146F0101509D11D00C0E0101F2
:100B70001E5D08E201011E2B0101080E146F010128
:100B8000509D05D00101020E146F0101509D01011D
:100B90004F830ED0000193B109D001014F930101A1
:100BA0001E6B0101146B0101508D02D001014F93A6
:100BB000000100019351020B31E00101010150518C
:100BC000800B2CE0040E01011F5D08E201011F2BC8
:100BD0000101320E156F0101509F1DD0080E010159
:100BE0001F5D08E201011F2B0101140E156F0101A9
:100BF000509F11D00C0E01011F5D08E201011F2B57
:100C00000101080E156F0101509F05D00101020E70
:100C1000156F0101509F01014F850ED0000193B364
:100C200009D001014F9501011F6B0101156B0101F5
:100C3000508F02D001014F9501014C51040B01E08E
:100C4000010E026E00019251020B01E0010E025CE6
:100C500011E000010001925101014C95020B01E0ED
:100C60004C85000192A303D001014D8502D0010102
:100C70004D9502D001014D9501014C51200B01E031
:100C8000010E026E00019251100B01E0010E025C98
:100C900011E000010001925101014C9B100B01E099
:100CA0004C8B000192A903D001014D8B02D00101B0
:100CB0004D9B02D001014D9B01014E51010B026E73
:100CC00000019251800B01E0010E025C11E0000175
:100CD0000001925101014E91800B01E04E81000113
:100CE00092AF03D001014F8102D001014F9102D098
:100CF00001014F9101014E51080B01E0010E026EFE
:100D000000019351040B01E0010E025C11E00001AF
:100D10000001935101014E97040B01E04E87000141
:100D200093A503D001014F8702D001014F9702D054
:100D300001014F9701014E51100B01E0010E026EAF
:100D400000019351080B01E0010E025C11E000016B
:100D50000001935101014E99080B01E04E890001F9
:100D600093A703D001014F8902D001014F9902D00E
:100D700001014F9901014E51200B01E0010E026E5D
:100D800000019451200B01E0010E025C11E0000112
:100D90000001945101014E9B200B01E04E8B00019C
:100DA00094AB03D001014F8B02D001014F9B02D0C5
:100DB00001014F9B01014E51400B01E0010E026EFB
:100DC00000019451400B01E0010E025C11E00001B2
:100DD0000001945101014E9D400B01E04E8D000138
:100DE00094AD03D001014F8D02D001014F9D02D07F
:100DF00001014F9D01014E51800B01E0010E026E79
:100E000000019451800B01E0010E025C11E0000131
:100E10000001945101014E9F800B01E04E8F0001B3
:100E200094AF03D001014F8F02D001014F9F02D038
:100E300001014F9F01015151400B01E0010E026E73
:100E400000019851400B01E0010E025C11E000012D
:100E5000000198510101519D400B01E0518D0001AD
:100E600098AD03D00101518F02D00101519F02D0F2
:100E70000101519F1200010101015451080B15E0BD
:100E8000010101014A51800B10E101014A8F01016A
:100E9000082B040E0101085D05E10101086B00014A
:100EA000968702D00001968905D0010154B702D07F
:100EB00001014A9F90EC2DF039EC2EF01200000158
:100EC00098BB02D00101528D000100019151400BED
:100ED00019E0000100019151100B14E00A0EE66EBA
:100EE000E8EC35F0E55201013E2B000E3F23880E61
:100EF00001013E1902E1130E3F1903E10101010E48
:100F0000576F03D001013E6B3F6B010152A702D026
:100F100001C100F101014BAB15D00101575105E1B1
:100F2000BDEC16F0010151830CD00101570504E11D
:100F30000101020E576F05D0010152B302D0010129
:100F400052832FD301014BAD1DD0010157510CE14C
:100F50004CEC17F0010151850101D00E386F070EDE
:100F6000396F010152970DD0010152A303D0010145
:100F7000529307D00101575104E089EC18F00101A8
:100F8000576B0FD3010101014B51080B01E17FD1D8
:100F9000000100019151400B06E000010001915158
:100FA000100B01E074D1010157510EE1320E010125
:100FB000005D0AE20101D00E386F070E396F0101A2
:100FC00052970101002B62D1010152B378D0020E79
:100FD0000101575D04E10101030E576F6FD0030E4D
:100FE0000101575D04E10101040E576F67D0040E43
:100FF0000101575D04E10101050E576F5FD0050E39
:101000000101575D04E10101060E576F57D0060E2E
:101010000101575D04E10101070E576F4FD0070E24
:101020000101575D04E10101080E576F47D0080E1A
:101030000101575D04E10101090E576F3FD0090E10
:101040000101575D04E101010A0E576F37D00A0E06
:101050000101575D04E101010B0E576F2FD00B0EFC
:101060000101575D04E101010C0E576F27D00C0EF2
:101070000101575D04E101010D0E576F1FD00D0EE8
:101080000101575D04E101010E0E576F17D00E0EDE
:101090000101575D04E101010F0E576F0FD00F0ED4
:1010A0000101575D04E10101100E576F07D0100ECA
:1010B0000101575D03E10101020E576FE7D0010105
:1010C00052A3E4D0020E0101575D0BE10101E70ECE
:1010D000A35D030EA45905E20101A32B000EA42376
:1010E000D5D0030E0101575D0BE10101E70EC95D8B
:1010F000030ECA5905E20101C92B000ECA23C6D04E
:10110000040E0101575D0BE10101E70ECD5D030EF9
:10111000CE5905E20101CD2B000ECE23B7D0050E2E
:101120000101575D0BE10101E70ECB5D030ECC59C8
:1011300005E20101CB2B000ECC23A8D0060E010145
:10114000575D0BE10101E70E8D5D030E8E5905E23F
:1011500001018D2B000E8E2399D0070E0101575DE2
:101160000BE10101E70E855D030E865905E20101E1
:10117000852B000E86238AD0080E0101575D0BE1F6
:101180000101E70EAF5D030EB05905E20101AF2B7F
:10119000000EB0237BD0090E0101575D0BE1010168
:1011A000E70EB15D030EB25905E20101B12B000E4D
:1011B000B2236CD00A0E0101575D0BE10101E70E6D
:1011C000B35D030EB45905E20101B32B000EB42345
:1011D0005DD00B0E0101575D0BE10101E70EB55D1E
:1011E000030EB65905E20101B52B000EB6234ED011
:1011F0000C0E0101575D0BE10101E70EA15D030E2D
:10120000A25905E20101A12B000EA2233FD00D0E31
:101210000101575D0BE10101E70E915D030E92594B
:1012200005E20101912B000E922330D00E0E010138
:10123000575D0BE10101E70E8B5D030E8C5905E252
:1012400001018B2B000E8C2321D00F0E0101575D65
:101250000BE10101E70E935D030E945905E20101D4
:10126000932B000E942312D0100E0101575D0EE156
:101270000001C951026E036AD890035004E6FA0EC9
:10128000025C000E035802E20001C92B8AD1010161
:1012900001014B51100B01E184D10001000191517A
:1012A000400B06E0000100019151100B01E079D1E3
:1012B000010157510EE10101005101080AE201014B
:1012C000D00E386F070E396F0101529701010007E8
:1012D00068D1010152B378D0100E0101575D04E1CD
:1012E00001010F0E576F6FD00F0E0101575D04E122
:1012F00001010E0E576F67D00E0E0101575D04E11C
:1013000001010D0E576F5FD00D0E0101575D04E115
:1013100001010C0E576F57D00C0E0101575D04E10F
:1013200001010B0E576F4FD00B0E0101575D04E109
:1013300001010A0E576F47D00A0E0101575D04E103
:101340000101090E576F3FD0090E0101575D04E1FD
:101350000101080E576F37D0080E0101575D04E1F7
:101360000101070E576F2FD0070E0101575D04E1F1
:101370000101060E576F27D0060E0101575D04E1EB
:101380000101050E576F1FD0050E0101575D04E1E5
:101390000101040E576F17D0040E0101575D04E1DF
:1013A0000101030E576F0FD0030E0101575D04E1D9
:1013B0000101020E576F07D0020E0101575D03E1D4
:1013C0000101100E576FEDD0010152A3EAD0020EB9
:1013D0000101575D0CE10101000ED880A355000EFC
:1013E000A45505E20101A307000EA45BDAD0030EA9
:1013F0000101575D0CE10101000ED880C955000EB6
:10140000CA5505E20101C907000ECA5BCAD0040E25
:101410000101575D0CE10101000ED880CD55000E91
:10142000CE5505E20101CD07000ECE5BBAD0050E08
:101430000101575D0CE10101000ED880CB55000E73
:10144000CC5505E20101CB07000ECC5BAAD0060EFD
:101450000101575D0CE10101000ED8808D55000E91
:101460008E5505E201018D07000E8E5B9AD0070EA6
:101470000101575D0CE10101000ED8808555000E79
:10148000865505E201018507000E865B8AD0080EAD
:101490000101575D0CE10101000ED880AF55000E2F
:1014A000B05505E20101AF07000EB05B7AD0090E1E
:1014B0000101575D0CE10101000ED880B155000E0D
:1014C000B25505E20101B107000EB25B6AD00A0E07
:1014D0000101575D0CE10101000ED880B355000EEB
:1014E000B45505E20101B307000EB45B5AD00B0EF0
:1014F0000101575D0CE10101000ED880B555000EC9
:10150000B65505E20101B507000EB65B4AD00C0ED8
:101510000101575D0CE10101000ED880A155000EBC
:10152000A25505E20101A107000EA25B3AD00D0E03
:101530000101575D0CE10101000ED8809155000EAC
:10154000925505E201019107000E925B2AD00E0E22
:101550000101575D0CE10101000ED8808B55000E92
:101560008C5505E201018B07000E8C5B1AD00F0E23
:101570000101575D0CE10101000ED8809355000E6A
:10158000945505E201019307000E945B0AD0100EFA
:101590000101575D06E10001C951010802E20001A5
:1015A000C907000100019351200B0AE1010101016B
:1015B000DC51040B05E10101DC850101DC891FD050
:1015C000000100019351400B0AE101010101DC51CE
:1015D000040B05E10101DC850101DC8710D000016D
:1015E00000019351200B0BE0000100019351400BCF
:1015F00006E00101DC950101DC970101DC990101A4
:1016000001014D51010B0AE00101E70E425D030E9D
:10161000435904E20101422B000E43230101010161
:101620004D51020B0BE00101000ED8804255000E17
:10163000435504E201014207000E435B0001000133
:101640009351800B0AE101010101DD51040B05E119
:101650000101DD850101DD891FD0000100019451E8
:10166000010B0AE101010101DD51040B05E101015A
:10167000DD850101DD8710D0000100019351800B51
:101680000BE0000100019451010B06E00101DD9522
:101690000101DD970101DD99010101014D51080BA7
:1016A0000AE00101E70E445D030E455904E2010121
:1016B000442B000E4523010101014D51100B0BE09D
:1016C0000101000ED8804455000E455504E2010189
:1016D0004407000E455B000100019451020B0AE132
:1016E00001010101DE51040B05E10101DE8501016B
:1016F000DE891FD0000100019451040B0AE10101B1
:101700000101DE51040B05E10101DE850101DE87E7
:1017100010D0000100019451020B0BE00001000108
:101720009451040B06E00101DE950101DE970101F1
:10173000DE99010101014D51400B0AE00101E70E64
:10174000465D030E475904E20101462B000E472374
:10175000010101014D51800B0BE00101000ED88009
:101760004655000E475504E201014607000E475B4F
:10177000000100019451080B0AE101010101DF5150
:10178000040B05E10101DF850101DF891FD00001A4
:1017900000019451100B0AE101010101DF51040B1A
:1017A00005E10101DF850101DF8710D000010001A3
:1017B0009451080B0BE0000100019451100B06E05E
:1017C0000101DF950101DF970101DF9901010101AD
:1017D0004F51020B0AE00101E70E485D030E495923
:1017E00004E20101482B000E4923010101014F5180
:1017F000040B0BE00101000ED8804855000E49553E
:1018000004E201014807000E495B12007AEC28F05F
:1018100054EC1BF081EC1DF068EC1EF04FEC1FF057
:1018200038EC20F021EC21F0E0EC21F09FEC22F0EC
:101830005EEC23F025EC24F0ADEC25F01200010164
:101840005851020A2EE0030A21E0010A01E034D0D7
:1018500000018C810101CFA109D0010155A503D060
:1018600000018B8F02D000018B9F02D000018B9F63
:10187000010101015551080B07E00101010155511A
:10188000020B02E08A8001D08A9016D000018C9170
:1018900000018B8F010155A702D08A8001D08A9068
:1018A0000BD000018C9100018B9F010154AD02D03F
:1018B0008A8001D08A9000D0000198AD03D0000149
:1018C0008E8302D000018E93010162510BE1000171
:1018D0008B9300018D9100018D9300018F9F00017A
:1018E0008F9D77D00101620504E0020E0101625D67
:1018F0004BE10001C4A103D000018F8F02D0000191
:101900008F9F00019AA503D000018D8302D00001B2
:101910008D9300019AA303D000018F8D02D00001A6
:101920008F9D00019AA103D000018D8102D000019A
:101930008D910101620521E10101615105E1010182
:101940000101E051100B09E1010155A503D000018F
:101950008B8302D000018B930FD0010101015551FF
:10196000040B08E0010101015551020B03E00001E5
:101970008B8302D000018B9306D0020E0101625DC1
:1019800002E100018B8325D0030E0101625D21E19C
:10199000010154AF16D000018B830101D0A902D000
:1019A00000018D810101D0A702D000018D830101CA
:1019B000D0AB06D000018D8100018D8300018F8D99
:1019C00008D000018B9300018D9100018D930001DF
:1019D0008F9D010163510BE100018C9D00018D95EC
:1019E00000018D9700018F9B00018F9973D0010139
:1019F000630504E0020E0101635D4BE10001C4A335
:101A000003D000018F8B02D000018F9B00019AABA5
:101A100003D000018D8702D000018D9700019AA9A3
:101A200003D000018F8902D000018F9900019AA78D
:101A300003D000018D8502D000018D950101630561
:101A400021E10101610505E101010101E051100BF6
:101A500009E1010155A503D000018C8D02D00001E0
:101A60008C9D0FD0010101015551040B08E00101CB
:101A700001015551020B03E000018C8D02D00001E1
:101A80008C9D06D0020E0101635D02E100018C8D88
:101A900021D0030E0101635D1DE1010154AF14D09B
:101AA0000101D2A902D000018D850101D2A702D087
:101AB00000018D870101D2AB06D000018D850001A8
:101AC0008D8700018F8906D000018D9500018D97CB
:101AD00000018F99010164510BE100018B9100011C
:101AE0008D9900018D9B00018F9700018F9574D017
:101AF0000101640504E0020E0101645D4CE1000196
:101B0000C4A503D000018F8702D000018F97000188
:101B10009BA503D000018D8B02D000018D9B00019D
:101B20009BA303D000018F8502D000018F95000197
:101B30009BA103D000018D8902D000018D99010184
:101B4000640522E1020E0101615D05E1010101016F
:101B5000E051100B09E1010155A503D000018B8173
:101B600002D000018B910FD0010101015551040BEE
:101B700008E0010101015551020B03E000018B81D6
:101B800002D000018B9106D0020E0101645D02E1DA
:101B900000018B8121D0030E0101645D1DE1010173
:101BA00054AF14D00101D4A902D000018D890101E4
:101BB000D4A702D000018D8B0101D4AB06D0000167
:101BC0008D8900018D8B00018F8506D000018D99D4
:101BD00000018D9B00018F95010165510BE1000112
:101BE0008C9F00018D9D00018D9F00018F9300014E
:101BF0008F9174D00101650504E0020E0101655D5D
:101C00004CE10001C4A703D000018F8302D0000182
:101C10008F9300019BAB03D000018D8F02D0000198
:101C20008D9F00019BA903D000018F8102D000018C
:101C30008F9100019BA703D000018D8D02D0000180
:101C40008D9D0101650522E1030E0101615D05E144
:101C500001010101E051100B09E1010155A503D07B
:101C600000018C8F02D000018C9F0FD00101010177
:101C70005551040B08E0010101015551020B03E02D
:101C800000018C8F02D000018C9F06D0020E010152
:101C9000655D02E100018C8F21D0030E0101655DBD
:101CA0001DE1010154AF14D00101D6A902D00001F9
:101CB0008D8D0101D6A702D000018D8F0101D6AB19
:101CC00006D000018D8D00018D8F00018F8106D01F
:101CD00000018D9D00018D9F00018F9101016651D2
:101CE00005E100018C9500018B9B32D00101660556
:101CF0000BE100018B9B010155A303D000018C85F2
:101D000002D000018C9524D0020E0101665D18E11D
:101D100000018C950101DCA303D000018B8B0FD057
:101D2000010101015551040B08E001010101555168
:101D3000020B03E000018B8B02D000018B9B08D0CB
:101D4000030E0101665D04E100018C9500018B9B8F
:101D50000101675105E100018C9700018B9932D098
:101D6000010167050BE100018B99010155A303D027
:101D700000018C8702D000018C9724D0020E010153
:101D8000675D18E100018C970101DDA303D000011C
:101D90008B890FD0010101015551040B08E00101AD
:101DA00001015551020B03E000018B8902D00001B3
:101DB0008B9908D0030E0101675D04E100018C9747
:101DC00000018B990101685105E100018C99000126
:101DD0008B9732D0010168050BE100018B9701015F
:101DE00055A303D000018C8902D000018C9924D026
:101DF000020E0101685D18E100018C990101DEA36A
:101E000003D000018B870FD0010101015551040B54
:101E100008E0010101015551020B03E000018B872D
:101E200002D000018B9708D0030E0101685D04E128
:101E300000018C9900018B970101695105E10001B6
:101E40008C9B00018B9532D0010169050BE10001EB
:101E50008B95010155A303D000018C8B02D00001AA
:101E60008C9B24D0020E0101695D18E100018C9B5E
:101E70000101DFA303D000018B850FD00101010117
:101E80005551040B08E0010101015551020B03E01B
:101E900000018B8502D000018B9508D0030E010153
:101EA000695D04E100018C9B00018B9501016B5180
:101EB00003E100018E9B26D001016B0503E10001C7
:101EC0008E8B20D0020E01016B5D10E1010101013A
:101ED0005551040B08E0010101015551020B03E0CB
:101EE00000018E8B02D000018E9B0CD0030E0101ED
:101EF0006B5D08E1010154AF03D000018E8B02D06D
:101F000000018E9B01016C5103E100018E9526D0EA
:101F100001016C0503E100018E8520D0020E010154
:101F20006C5D10E1010101015551040B08E0010154
:101F300001015551020B03E000018E8502D0000122
:101F40008E950CD0030E01016C5D08E1010154AFC8
:101F500003D000018E8502D000018E9501016D51E4
:101F600003E100018E9926D001016D0503E1000116
:101F70008E8920D0020E01016D5D10E10101010189
:101F80005551040B08E0010101015551020B03E01A
:101F900000018E8902D000018E990CD0030E010140
:101FA0006D5D08E1010154AF03D000018E8902D0BC
:101FB00000018E9901016A5109E100018E9F000123
:101FC0008E9D00018E9100018E9765D001016A05FA
:101FD0002EE1000199AD03D000018E8702D00001EF
:101FE0008E97000199A903D000018E8102D00001D3
:101FF0008E91000199AB03D000018E8D02D00001BB
:102000008E9D0001C3A903D000018E8F0FD0010166
:1020100001015551040B08E0010101015551020B6A
:1020200003E000018E8F02D000018E9F34D00101A9
:10203000020E6A6F01016A512EE0000199AD03D0D2
:1020400000018E8702D000018E97000199A903D06C
:1020500000018E8102D000018E91000199AB03D066
:1020600000018E8D02D000018E9D010154AF0AD077
:1020700000018E8F0101D8AB04D000018E810001D8
:102080008E8D09D000018E9F0101D8AB04D00001D4
:102090008E9100018E9D010152AD27D001010101F9
:1020A0005551400B17E0010101015551200B12E081
:1020B000010101015551100B0DE0010101015551C4
:1020C000080B08E0010101015551040B03E0000178
:1020D000C48D02D00001C49D010154AD03D00001A4
:1020E0008C8302D000018C9332D101010101E051B7
:1020F000020B37E101010101E151020B32E1010163
:102100000101E251020B2DE101010101E051010B3E
:1021100028E101010101E151010B23E1010101016C
:10212000E251010B1EE101010101D851080B19E137
:1021300001010101DC51010B14E101010101DD513B
:10214000010B0FE101010101DE51010B0AE1010167
:102150000101DF51010B05E1000100019551040B64
:102160000BE00001C48D010154AD03D000018C834C
:1021700002D000018C93EBD001010101D051200B62
:1021800014E101010101D251200B0FE10101010114
:10219000D451200B0AE101010101D651200B05E1C8
:1021A00001010101D851200B1DE001010101555130
:1021B000200B0DE0010101015551100B08E0010158
:1021C00001015551020B03E00001C48D02D0000152
:1021D000C49D010154AD03D000018C8302D00001E5
:1021E0008C93B5D001010101D051080B23E101010D
:1021F0000101D251080B1EE101010101D451080B6C
:1022000019E101010101D651080B14E1010101019D
:10221000D851100B0FE101010101D851400B0AE127
:1022200001010101DA51080B05E101010101DA5157
:10223000010B22E0010101015551200B12E00101C7
:1022400001015551100B0DE0010101015551080B21
:1022500008E0010101015551020B03E00001C48DAA
:1022600002D00001C49D010154AD03D000018C8354
:1022700002D000018C936BD001010101D051100BF1
:102280000FE101010101D251100B0AE1010101012D
:10229000D451100B05E101010101D651100B27E0CB
:1022A000010101015551200B17E0010101015551B8
:1022B000100B12E0010101015551080B0DE0010165
:1022C00001015551040B08E0010101015551020BB8
:1022D00003E00001C48D02D00001C49D010154AD92
:1022E00003D000018C8302D000018C9330D0010117
:1022F0000101E051040B0AE101010101E151040B6C
:1023000005E101010101E251040B1DE001010101A0
:102310005551400B0DE0010101015551080B08E03A
:10232000010101015551020B03E00001C48D02D0EF
:102330000001C49D010154AD03D000018C8302D083
:1023400000018C9304D00001C49D00018C93120005
:1023500042C1E6FF43C1E6FF56EC19F0E552E552F3
:1023600024C126F123C127F122C128F144C1E6FF8F
:1023700045C1E6FF56EC19F0E552E55224C129F1BA
:1023800023C12AF122C12BF146C1E6FF47C1E6FF76
:1023900056EC19F0E552E55224C12CF123C12DF180
:1023A00022C12EF148C1E6FF49C1E6FF56EC19F003
:1023B000E552E55224C12FF123C130F122C131F1A0
:1023C0000101575101E05FD1010152AF77D0010106
:1023D000075111E10101326B0101336B0101346BD3
:1023E0000101256B140E01013A6F3B6B01015197FE
:1023F0000101072B62D0010107055FE10101010125
:102400005151080B5AE033C132F134C133F10101AB
:10241000255104E10101530E346F38D00101250527
:1024200004E10101590E346F31D0020E0101255D26
:1024300004E10101530E346F29D0030E0101255D23
:1024400003E10101346B22D0040E0101255D04E19A
:102450000101690E346F1AD0050E0101255D04E1FA
:1024600001016E0E346F12D0060E0101255D04E1EC
:102470000101690E346F0AD0070E0101255D04E1E8
:102480000101740E346F02D00101346B0101252B60
:10249000010125510A080BE20101529FC80E0101FA
:1024A0003A6F3B6B010151970101076B06D01E0E7D
:1024B00001013A6F3B6B01015197E4D0010151A337
:1024C00064D00101075114E10101326B0101336B4A
:1024D0000101346B0101256B010151A706D0140ED7
:1024E00001013A6F3B6B010151970101072B4CD061
:1024F0000101070549E1010101015151080B44E0C7
:1025000033C132F134C133F10101255104E101013C
:10251000750E346F29D00101250504E10101630E18
:10252000346F22D0020E0101255D04E10101690E24
:10253000346F1AD0030E0101255D04E10101740E10
:10254000346F12D0040E0101255D04E10101410E3A
:10255000346F0AD0050E0101255D04E101016E0E04
:10256000346F02D00101346B0101252B010125518B
:10257000080804E2010151930101076B1E0E0101DD
:102580003A6F3B6B010151977DD0010151A569D094
:102590000101075111E10101326B0101336B0101AE
:1025A000346B0101256B140E01013A6F3B6B010185
:1025B00051970101072B54D00101070551E1010199
:1025C00001015151080B4CE033C132F134C133F1F8
:1025D0000101255104E10101530E346F31D0010195
:1025E000250504E10101410E346F2AD0020E0101DC
:1025F000255D04E10101430E346F22D0030E010179
:10260000255D04E10101550E346F1AD0040E01015D
:10261000255D04E10101750E346F12D0050E010134
:10262000255D04E10101410E346F0AD0060E01015F
:10263000255D04E101016E0E346F02D00101346B9F
:102640000101252B01012551090804E201015195E1
:102650000101076B1E0E01013A6F3B6B010151979F
:1026600011D001010051E66EE66A56EC19F0E55210
:10267000E5520101500E326F23C133F122C134F112
:102680000101076BECD1010157050AE10101530E6D
:10269000326F0101450E336F0101740E346FDFD1CB
:1026A000020E0101575D1CE1010152A30FD0A3C12D
:1026B000E6FFA4C1E6FF56EC19F0E552E55224C14D
:1026C00032F123C133F122C134F109D00101740E7A
:1026D000326F0101300E336F0101310E346FBFD103
:1026E000030E0101575D1CE1010152A30FD0C9C1C6
:1026F000E6FFCAC1E6FF56EC19F0E552E55224C1E7
:1027000032F123C133F122C134F109D00101740E39
:10271000326F0101300E336F0101320E346F9FD1E1
:10272000040E0101575D1CE1010152A30FD0CDC180
:10273000E6FFCEC1E6FF56EC19F0E552E55224C1A2
:1027400032F123C133F122C134F109D00101740EF9
:10275000326F0101300E336F0101330E346F7FD1C0
:10276000050E0101575D1CE1010152A30FD0CBC141
:10277000E6FFCCC1E6FF56EC19F0E552E55224C164
:1027800032F123C133F122C134F109D00101740EB9
:10279000326F0101300E336F0101340E346F5FD19F
:1027A000060E0101575D1CE1010152A30FD08DC13E
:1027B000E6FF8EC1E6FF56EC19F0E552E55224C162
:1027C00032F123C133F122C134F109D00101740E79
:1027D000326F0101300E336F0101350E346F3FD17E
:1027E000070E0101575D1CE1010152A30FD085C105
:1027F000E6FF86C1E6FF56EC19F0E552E55224C12A
:1028000032F123C133F122C134F109D00101740E38
:10281000326F0101300E336F0101360E346F1FD15C
:10282000080E0101575D1CE1010152A30FD0AFC199
:10283000E6FFB0C1E6FF56EC19F0E552E55224C1BF
:1028400032F123C133F122C134F109D00101740EF8
:10285000326F0101300E336F0101370E346FFFD03C
:10286000090E0101575D1CE1010152A30FD0B1C156
:10287000E6FFB2C1E6FF56EC19F0E552E55224C17D
:1028800032F123C133F122C134F109D00101740EB8
:10289000326F0101300E336F0101380E346FDFD01B
:1028A0000A0E0101575D1CE1010152A30FD0B3C113
:1028B000E6FFB4C1E6FF56EC19F0E552E55224C13B
:1028C00032F123C133F122C134F109D00101740E78
:1028D000326F0101300E336F0101390E346FBFD0FA
:1028E0000B0E0101575D1CE1010152A30FD0B5C1D0
:1028F000E6FFB6C1E6FF56EC19F0E552E55224C1F9
:1029000032F123C133F122C134F109D00101740E37
:10291000326F0101310E336F0101300E346F9FD0E1
:102920000C0E0101575D1CE1010152A30FD0A1C1A2
:10293000E6FFA2C1E6FF56EC19F0E552E55224C1CC
:1029400032F123C133F122C134F109D00101740EF7
:10295000326F0101310E336F0101310E346F7FD0C0
:102960000D0E0101575D1CE1010152A30FD091C171
:10297000E6FF92C1E6FF56EC19F0E552E55224C19C
:1029800032F123C133F122C134F109D00101740EB7
:10299000326F0101310E336F0101320E346F5FD09F
:1029A0000E0E0101575D1CE1010152A30FD08BC136
:1029B000E6FF8CC1E6FF56EC19F0E552E55224C162
:1029C00032F123C133F122C134F109D00101740E77
:1029D000326F0101310E336F0101330E346F3FD07E
:1029E0000F0E0101575D1CE1010152A30FD093C1ED
:1029F000E6FF94C1E6FF56EC19F0E552E55224C11A
:102A000032F123C133F122C134F109D00101740E36
:102A1000326F0101310E336F0101340E346F1FD05C
:102A2000100E0101575D1BE1010152A30FD00001FF
:102A3000C951E66EE66A56EC19F0E552E55224C13A
:102A400032F123C133F122C134F109D00101740EF6
:102A5000326F0101310E336F0101350E346F010108
:102A600052B502D089D102D00001906901013551DF
:102A700007E1010152AD03D00001100E906F69D142
:102A80000101350507E1000195A503D00001010E04
:102A9000906F5FD1020E0101355D07E1010153A581
:102AA00003D00001020E906F54D1030E0101355D79
:102AB00007E10101E0A303D00001110E906F49D19D
:102AC000040E0101355D07E10101E1A303D000011E
:102AD000120E906F3ED1050E0101355D07E1010137
:102AE000E2A303D00001130E906F33D1060E010153
:102AF000355D07E10101E0A103D00001140E906FE4
:102B000028D1070E0101355D07E10101E1A103D0E4
:102B10000001150E906F1DD1080E0101355D07E112
:102B20000101E2A103D00001160E906F12D1090E2F
:102B30000101355D07E10101D8A703D00001170E9F
:102B4000906F07D10A0E0101355D07E10101E0A593
:102B500003D00001210E906FFCD00B0E0101355DFA
:102B600007E10101E1A503D00001220E906FF1D031
:102B70000C0E0101355D07E10101E2A503D0000162
:102B8000230E906FE6D00D0E0101355D07E10101C6
:102B9000DCA103D00001310E906FDBD00E0E0101DD
:102BA000355D07E10101DDA103D00001320E906F18
:102BB000D0D00F0E0101355D07E10101DEA103D088
:102BC0000001330E906FC5D0100E0101355D07E195
:102BD0000101DFA103D00001340E906FBAD0110EB5
:102BE0000101355D07E10101D0AB03D00001410EC9
:102BF000906FAFD0120E0101355D07E10101D2AB3C
:102C000003D00001420E906FA4D0130E0101355D78
:102C100007E10101D4AB03D00001430E906F99D0BE
:102C2000140E0101355D07E10101D6AB03D00001AF
:102C3000440E906F8ED0150E0101355D07E1010144
:102C4000D8AB03D00001450E906F83D0160E010162
:102C5000355D07E10101D0A703D00001510E906F4F
:102C600078D0170E0101355D07E10101D2A703D02D
:102C70000001520E906F6DD0180E0101355D07E115
:102C80000101D4A703D00001530E906F62D0190E3A
:102C90000101355D07E10101D6A703D00001540E03
:102CA000906F57D01A0E0101355D07E10101DAA1DD
:102CB00003D00001550E906F4CD01B0E0101355D05
:102CC00007E10101DAA703D00001560E906F41D051
:102CD0001C0E0101355D07E10101D8A903D00001F7
:102CE000570E906F36D01D0E0101355D07E10101D1
:102CF000D8AD03D00001580E906F2BD01E0E0101ED
:102D0000355D07E10101D0A903D00001610E906F8C
:102D100020D01F0E0101355D07E10101D2A903D0CA
:102D20000001620E906F15D0200E0101355D07E1A4
:102D30000101D4A903D00001630E906F0AD0210EC7
:102D40000101355D06E10101D6A903D00001640E41
:102D5000906FFF0E0001905D07E001012C0E406FA7
:102D6000010E416F010152950101352B220E010127
:102D7000355D02E10101356B1200D9CFE6FFE1CFED
:102D8000D9FF020EE126100E0101005D08E2DF6AA4
:102D900001010051100D010EF3CFDBFF29D0200EF1
:102DA0000101005D0AE2020EDF6E100E0101005DFE
:102DB000100D010EF3CFDBFF1BD0300E0101005DC3
:102DC0000AE2040EDF6E200E0101005D100D010EFF
:102DD000F3CFDBFF0DD0330E0101005D09E2060EDB
:102DE000DF6E300E0101005D100D010EF3CFDBFF31
:102DF000DFCFE6FF010EDBCFE6FF42DBE552E55217
:102E0000F3CF42F1F4CF43F1DFCFE6FF010EDB5009
:102E1000020FE66E35DBE552E552F3CF44F1F4CF15
:102E200045F1DFCFE6FF010EDB50040FE66E28DB35
:102E3000E552E552F3CF46F1F4CF47F1DFCFE6FF9D
:102E4000010EDB50060FE66E1BDBE552E552F3CFB9
:102E500048F1F4CF49F1DFCFE6FF010EDB50080F58
:102E6000E66E0EDBE552E552F3CF56F1080EE66E44
:102E700000C1E6FF1E0EE66E40DBE552E552E5526C
:102E800000C101F1020EE15C02E2E16AE552E16E8D
:102E9000E552E7CFD9FF1200D9CFE6FFE1CFD9FF46
:102EA000020EE126100E0101005D08E2DF6A010159
:102EB0000051100D010EF3CFDBFF29D0200E0101D0
:102EC000005D0AE2020EDF6E100E0101005D100DC2
:102ED000010EF3CFDBFF1BD0300E0101005D0AE2D3
:102EE000040EDF6E200E0101005D100D010EF3CF08
:102EF000DBFF0DD0330E0101005D09E2060EDF6E2F
:102F0000300E0101005D100D010EF3CFDBFFDFCFAE
:102F1000E6FF42C1E6FF43C1E6FF010EDBCFE6FF5D
:102F200097DBE552E552E552E552DFCFE6FF44C1BB
:102F3000E6FF45C1E6FF010EDB50020FE66E88DBBF
:102F4000E552E552E552E552DFCFE6FF46C1E6FF26
:102F500047C1E6FF010EDB50040FE66E79DBE55258
:102F6000E552E552E552DFCFE6FF48C1E6FF49C131
:102F7000E6FF010EDB50060FE66E6ADBE552E55216
:102F8000E552E552DFCFE6FF01015651E66EE66AF3
:102F9000010EDB50080FE66E5BDBE552E552E552B1
:102FA000E552020EE15C02E2E16AE552E16EE552B1
:102FB000E7CFD9FF1200080EE66EE66A61DAE55245
:102FC000E552F3CFA3F1F4CFA4F1080EE66E020EA2
:102FD000E66E56DAE552E552F3CFC9F1F4CFCAF105
:102FE000080EE66E040EE66E4BDAE552E552F3CFBC
:102FF000CDF1F4CFCEF1080EE66E060EE66E40DAA5
:10300000E552E552F3CFCBF1F4CFCCF1080EE66EEA
:10301000080EE66E35DAE552E552F3CF8DF1F4CFC6
:103020008EF1080EE66E0A0EE66E2ADAE552E552D9
:10303000F3CF85F1F4CF86F1080EE66E0C0EE66E46
:103040001FDAE552E552F3CFAFF1F4CFB0F1080E3D
:10305000E66E0E0EE66E14DAE552E552F3CFB1F1EC
:10306000F4CFB2F1080EE66E100EE66E09DAE55204
:10307000E552F3CFB3F1F4CFB4F1080EE66E120EC1
:10308000E66EFED9E552E552F3CFB5F1F4CFB6F1D5
:10309000080EE66E140EE66EF3D9E552E552F3CF54
:1030A000A1F1F4CFA2F1080EE66E160EE66EE8D995
:1030B000E552E552F3CF91F1F4CF92F1080EE66EAE
:1030C000180EE66EDDD9E552E552F3CF8BF1F4CF61
:1030D0008CF1080EE66E1A0EE66ED2D9E552E55274
:1030E000F3CF93F1F4CF94F1080EE66E1C0EE66E6A
:1030F0003FD9E552E5520001C96F080EE66E200E79
:10310000E66EBED9E552E552F3CF36F1F4CF37F192
:103110001200080EE66EA3C1E6FFA4C1E6FFE66A50
:1031200097DAE552E552E552E552080EE66EC9C15E
:10313000E6FFCAC1E6FF020EE66E8ADAE552E55204
:10314000E552E552080EE66ECDC1E6FFCEC1E6FFC0
:10315000040EE66E7DDAE552E552E552E552080EC0
:10316000E66ECBC1E6FFCCC1E6FF060EE66E70DA76
:10317000E552E552E552E552080EE66E8DC1E6FFD6
:103180008EC1E6FF080EE66E63DAE552E552E552BF
:10319000E552080EE66E85C1E6FF86C1E6FF0A0E1F
:1031A000E66E56DAE552E552E552E552080EE66E55
:1031B000AFC1E6FFB0C1E6FF0C0EE66E49DAE5529C
:1031C000E552E552E552080EE66EB1C1E6FFB2C126
:1031D000E6FF0E0EE66E3CDAE552E552E552E552A8
:1031E000080EE66EB3C1E6FFB4C1E6FF100EE66E50
:1031F0002FDAE552E552E552E552080EE66EB5C10A
:10320000E6FFB6C1E6FF120EE66E22DAE552E5529F
:10321000E552E552080EE66EA1C1E6FFA2C1E6FF47
:10322000140EE66E15DAE552E552E552E552080E47
:10323000E66E91C1E6FF92C1E6FF160EE66E08DA71
:10324000E552E552E552E552080EE66E8BC1E6FF07
:103250008CC1E6FF180EE66EFBD9E552E552E55249
:10326000E552080EE66E93C1E6FF94C1E6FF1A0E22
:10327000E66EEED9E552E552E552E552080EE66EED
:10328000C9C0E6FF1C0EE66E38D9E552E552E5529C
:10329000080EE66E36C1E6FF37C1E6FF200EE66E89
:1032A000D7D9E552E552E552E5521200D9CFE6FFF3
:1032B000E1CFD9FF0101246B0101236B0101226BD6
:1032C000D950FD0FE96EFF0EDA20EA6EE70ED880C6
:1032D000EE54030EED540AE2E70EF36EFD0EF3CF4B
:1032E000DBFF030EF36EFE0EF3CFDBFFD950FD0FB5
:1032F000E96EFF0EDA20EA6E630ED880EE54000EFF
:10330000ED540DE2D950FD0FE96EFF0EDA20EA6EA2
:10331000640EEE5E000EED5A0101242BE7D7D95062
:10332000FD0FE96EFF0EDA20EA6E090ED880EE542A
:10333000000EED540DE2D950FD0FE96EFF0EDA20BC
:10334000EA6E0A0EEE5E000EED5A0101232BE7D75E
:10335000FD0EDBCF22F1300E01012227300E0101DC
:103360002327300E01012427E552E7CFD9FF1200B1
:10337000D9CFE6FFE1CFD9FF020EE126FD0EDB50EB
:1033800004E1DE52A00EDD6E37D0FD0EDB500208E8
:1033900004E1DE52A20EDD6E2FD0FD0EDB500408DC
:1033A00004E1DE52A40EDD6E27D0FD0EDB500608D0
:1033B00004E1DE52A60EDD6E1FD0FD0EDB500808C4
:1033C00004E1DE52A80EDD6E17D0FD0EDB500A08B8
:1033D00004E1DE52AA0EDD6E0FD0FD0EDB500C08AC
:1033E00004E1DE52AC0EDD6E07D0FD0EDB500E08A0
:1033F00003E1DE52AE0EDD6E01015395E4EC30F0D8
:10340000010EDBCFE6FF8EEC30F0E55232EC31F00E
:10341000DF6EDF5002E101015385FE0EDBCFE6FFD8
:103420008EEC30F0E55232EC31F0DF6EDF5002E12D
:1034300001015385E4EC30F0010EDB2A010EDBCFF5
:10344000E6FF8EEC30F0E55232EC31F0DF6EDF500B
:1034500002E101015385B6EC30F0DF6E5CEC31F037
:10346000F8EC30F0DF5000D0026E020EE15C02E2B8
:10347000E16AE552E16E0250E552E7CFD9FF120052
:10348000D9CFE6FFE1CFD9FF020EE126FD0EDBCF5B
:10349000E6FFFE0EDBCFE6FF6BDFE552E552DE6EA8
:1034A000DD6ADECF02F0DDCF03F002C003F0026A76
:1034B00002C0DEFF03C0DDFFFE0EDB2AFD0EDBCF08
:1034C000E6FFFE0EDBCFE6FF53DFE552E552DE26D8
:1034D000000EDD22DECF02F0DDCF03F002C0F3FFED
:1034E00003C0F4FF00D0020EE15C02E2E16AE552A3
:1034F000E16EE552E7CFD9FF1200D9CFE6FFE1CF69
:10350000D9FF030EE126FC0EDB5006E1A00EF36EA0
:10351000020EF3CFDBFF45D0FC0EDB50020806E1C4
:10352000A20EF36E020EF3CFDBFF3BD0FC0EDB509E
:10353000040806E1A40EF36E020EF3CFDBFF31D0D8
:10354000FC0EDB50060806E1A60EF36E020EF3CF6A
:10355000DBFF27D0FC0EDB50080806E1A80EF36E57
:10356000020EF3CFDBFF1DD0FC0EDB500A0806E194
:10357000AA0EF36E020EF3CFDBFF13D0FC0EDB506E
:103580000C0806E1AC0EF36E020EF3CFDBFF09D0A0
:10359000FC0EDB500E0805E1AE0EF36E020EF3CF0B
:1035A000DBFF01015395E4EC30F0020EDBCFE6FFC8
:1035B0008EEC30F0E55232EC31F0DF6EDF5002E19C
:1035C00001015385FE0EDBCFE6FF8EEC30F0E552B5
:1035D00032EC31F0DF5002E101015385FD0EDBCF0B
:1035E000E6FF8EEC30F0E55232EC31F0DF6EDF506A
:1035F00002E101015385F8EC30F0010EDB6ADF6A6D
:10360000DF5018E1E4EC30F0020EDBCFE6FF8EEC89
:1036100030F0E55232EC31F0DF6E010EDB2A010EA4
:10362000DB50026E036AFA0E021801E1035001E159
:1036300001D0E6D7DF5002E101015385030EE15CC2
:1036400002E2E16AE552E16EE552E7CFD9FF1200EE
:10365000D9CFE6FFE1CFD9FFFB0EDBCFE6FFFC0EB3
:10366000DBCF02F0FD0EDBCF03F003C002F0036AF4
:103670000250E66EFE0EDBCFE6FF3FDFE552E5527D
:10368000E552FE0EDB2AFB0EDBCFE6FFFC0EDBCFA6
:10369000E6FFFE0EDBCFE6FF30DFE552E552E552F6
:0836A000E552E7CFD9FF12004B
:0836A800010101015251400B28
:1036B00005E1000100019551040B09E00101CF91E2
:1036C0000101CF930101020E586F01017F6B0101CF
:1036D0005851020A01E13FD1030A01E1F8D0010A81
:1036E00001E0A8D1000198B102D00101E081000100
:1036F00098B702D00101E083000198B302D0010124
:10370000E181000198B302D00101E183000198B585
:1037100002D00101E281000198B502D00101E283EB
:10372000000198B902D00101D88701014BB583D9B6
:1037300001017F514AE101010101CF51020B45E135
:103740000101596B5A6B01015B6B5C6B01015D6B95
:103750005E6B01015F6B606BC5EC31F00001C1690C
:103760000001C3910001C3930001C39F0001C397EF
:103770000001C3990001C39B0001C39D0001C395D3
:103780000001C4910001C4930001C4950001C497D5
:103790000001C4990101DAA703D00001C49B02D043
:1037A0000001C48B0101CF9101014BA10DD043D980
:1037B0000A0E0101B76FB86B0101CF950001C38BF1
:1037C0000101CF8101017F2B81D001017F0501E043
:1037D0007DD001010101CF51040B01E177D000013F
:1037E00000019951010B0FE0000100019951020BFA
:1037F0000AE0000100019951040B05E000010001FD
:103800009951080B0CE10001C39B0101CF9101010B
:10381000CF930101020E586F01017F6B57D0010158
:103820008D518E1104E001018551861103E10101E2
:10383000538106D00101539185C18FF186C190F16A
:1038400001019351941104E001018B518C1103E1AA
:103850000101538306D0010153938BC195F18CC1B3
:1038600096F1010156A103D00101020E626F010120
:1038700056A303D00101020E636F010156A503D0C8
:103880000101020E646F010156A703D00101020E6F
:10389000656F010156A903D00101010E6A6F010194
:1038A00056AB03D00101010E6B6F0101D08D0101F8
:1038B000D28D0101D48D0101D68D0101CF8301018B
:1038C000010E586F0101616B01017F6BB3D00101E3
:1038D0004BB5B1D80101615107E10101620504E076
:1038E0000101010E616F1ED00101610507E10101B7
:1038F000630504E00101020E616F14D0020E0101A4
:10390000615D07E10101640504E00101030E616FDF
:1039100009D0030E0101615D05E10101650502E0C9
:103920000101616B01017F5115E1010101014B5161
:10393000020B10E0030E0101B76FB86B0101CF95C8
:103940000101CF910001C39B0101CF930101586B8D
:1039500001017F6B6FD0010152AD02D00101528D88
:10396000000195A502D000019585000198B102D013
:103970000101E081000198B702D00101E08300015C
:1039800098B302D00101E181000198B302D0010196
:10399000E183000198B502D00101E281000198B5F0
:1039A00002D00101E283000198B902D00101D88759
:1039B000000199B102D00101DC81000199B302D06C
:1039C0000101DD81000199B502D00101DE81000114
:1039D00099B702D00101DF810101596B5A6B0101D6
:1039E0005B6B5C6B01015D6B5E6B01015F6B606B20
:1039F000C5EC31F00001C1690001C4AD07D0000180
:103A0000C36B0001C46B0001C48D04D00001C36B03
:103A10000001C46B0101DAA702D00001C49B0101BF
:103A2000CF9101014BA505D006D80101586B0101CA
:103A30007F6B00D012000101529D0101D09701015E
:103A4000D0990101D09B00018B9300018D91000161
:103A50008D9300018F9D0101D2970101D29901013F
:103A6000D29B00018C9D00018D9500018D97000176
:103A70008F990101D4970101D4990101D49B0001D0
:103A80008B9100018D9900018D9B00018F950101A3
:103A9000D6970101D6990101D69B00018C9F0001A8
:103AA0008D9D00018D9F00018F910101E095010125
:103AB000E0930101E0910101E1950101E193010130
:103AC000E1910101E2950101E2930101E29101011D
:103AD000DA91000199BD04D00101DA970001C48B8D
:103AE0000101D8970101D8990101D89D0101D89B06
:103AF0000101DC910101DD910101DE910101DF9104
:103B000012000101CFB302D00101626B01016251C9
:103B1000030A01E1C2D0010A01E185D0030A1CE0D9
:103B2000010A01E0D4D001014DA505D00101020E2A
:103B3000626F010156810001C4910101D09701011A
:103B4000D09900018B9300018D9100018D930001AC
:103B50008F9D01016F6BBBD001014DA505D0010107
:103B6000626B01015691B3D0000100019351100B1B
:103B700005E1000100019A51010B0FE00101D0990C
:103B80000001C4910101050E7A6F0101CF97010177
:103B9000020E626F01016F6B0CD0000100019A519F
:103BA000040B07E101010101D051400B02E10101C9
:103BB000D08701016F5108E10101615105E1010167
:103BC000E08701016F2B2ED001016F0514E1010187
:103BD000615111E10101E0A90BD0AFC1A7F1B0C162
:103BE000A8F10101D0950001C48101016F2B02D021
:103BF0000101E08717D0020E01016F5D13E10101A1
:103C00000101D051040B0EE00101D0890001C491E3
:103C10000101050E7A6F0101CF970101020E626F5B
:103C200001016F6B54D001014DA505D00101626BFC
:103C3000010156914CD000019AA503D00101D09DFD
:103C400015D0000100019351100B10E10101010199
:103C5000D051400B0BE100019AB306D00101D08B8B
:103C60000101030E626F02D00101D0870001000143
:103C70009A51020B11E001010101CF51080B0CE038
:103C800000019AA106D00101D08B0101030E626FE1
:103C900003D00101010E626F1AD001014DA504D0BD
:103CA0000101626B0101569101014BA50DD001018B
:103CB000020E626F00018B9300018D9100018D93C4
:103CC00000018F9D01016F6B0001C49100D01200B3
:103CD0000101CFB302D00101636B01016351030AFB
:103CE00001E1C2D0010A01E185D0030A1CE0010A0A
:103CF00001E0D4D001014DAB05D00101020E636F8C
:103D0000010156830001C4930101D2970101D299A8
:103D100000018C9D00018D9500018D9700018F9908
:103D20000101706BBBD001014DAB05D00101636B8C
:103D300001015693B3D0000100019351100B05E12E
:103D4000000100019A51080B0FE00101D299000116
:103D5000C4930101050E7B6F0101CF990101020E91
:103D6000636F0101706B0CD0000100019A51200BB0
:103D700007E101010101D251400B02E10101D287AB
:103D80000101705108E10101610505E10101E087D0
:103D90000101702B2ED00101700514E101016105B4
:103DA00011E10101E0A90BD0B1C1A9F1B2C1AAF1A1
:103DB0000101D2950001C4830101702B02D00101E1
:103DC000E08717D0020E0101705D13E101010101CE
:103DD000D251040B0EE00101D2890001C49301010C
:103DE000050E7B6F0101CF990101020E636F010186
:103DF000706B54D001014DAB05D00101636B010123
:103E000056934CD000019AAB03D00101D29D15D03E
:103E1000000100019351100B10E101010101D25189
:103E2000400B0BE100019AB906D00101D28B0101D0
:103E3000030E636F02D00101D287000100019A5185
:103E4000100B11E001010101CF51100B0CE000013A
:103E50009AA706D00101D28B0101030E636F03D034
:103E60000101010E636F1AD001014DAB04D00101B5
:103E7000636B0101569301014BA50DD00101020EA8
:103E8000636F00018C9D00018D9500018D970001ED
:103E90008F990101706B0001C49300D012000101E1
:103EA000CFB302D00101646B01016451030A01E147
:103EB000C4D0010A01E187D0030A1CE0010A01E035
:103EC000D6D001014FA105D00101020E646F01019E
:103ED00056850001C4950101D4970101D4990001D0
:103EE0008B9100018D9900018D9B00018F9501013F
:103EF000716BBDD001014FA105D00101646B0101BF
:103F00005695B5D0000100019351100B05E1000159
:103F100000019B51010B0FE00101D4990001C495F0
:103F20000101050E7C6F0101CF9B0101020E646F40
:103F30000101716B0CD0000100019B51040B07E1E2
:103F400001010101D451400B02E10101D4870101BB
:103F5000715109E1020E0101615D05E10101E08796
:103F60000101712B2FD00101710515E1020E010134
:103F7000615D11E10101E0A90BD0B3C1ABF1B4C1A6
:103F8000ACF10101D4950001C4850101712B02D06F
:103F90000101E08717D0020E0101715D13E10101FB
:103FA0000101D451040B0EE00101D4890001C49534
:103FB0000101050E7C6F0101CF9B0101020E646FB0
:103FC0000101716B54D001014FA105D00101646B57
:103FD000010156954CD000019BA503D00101D49D51
:103FE00015D0000100019351100B10E101010101F6
:103FF000D451400B0BE100019BB306D00101D48BDF
:104000000101030E646F02D00101D4870001000199
:104010009B51020B11E001010101CF51200B0CE07B
:1040200000019BA106D00101D48B0101030E646F36
:1040300003D00101010E646F1AD001014FA104D019
:104040000101646B0101569501014BA50DD00101E1
:10405000020E646F00018B9100018D9900018D9B10
:1040600000018F950101716B0001C49500D0120011
:104070000101CFB302D00101656B01016551030A53
:1040800001E1C4D0010A01E187D0030A1CE0010A62
:1040900001E0D6D001014FA705D00101020E656FE6
:1040A000010156870001C4970101D6970101D699F5
:1040B00000018C9F00018D9D00018D9F00018F915B
:1040C0000101726BBDD001014FA705D00101656BE5
:1040D00001015697B5D0000100019351100B05E185
:1040E000000100019B51080B0FE00101D69900016E
:1040F000C4970101050E7D6F0101CF9D0101020EE4
:10410000656F0101726B0CD0000100019B51200B07
:1041100007E101010101D651400B02E10101D687FF
:104120000101725109E1030E0101615D05E1010127
:10413000E0870101722B2FD00101720515E1030EFA
:104140000101615D11E10101E0A90BD0B5C1ADF143
:10415000B6C1AEF10101D6950001C4870101722BF1
:1041600002D00101E08717D0020E0101725D13E158
:1041700001010101D651040B0EE00101D6890001B5
:10418000C4970101050E7D6F0101CF9D0101020E53
:10419000656F0101726B54D001014FA705D0010179
:1041A000656B010156974CD000019BAB03D0010118
:1041B000D69D15D0000100019351100B10E10101B3
:1041C0000101D651400B0BE100019BB906D0010162
:1041D000D68B0101030E656F02D00101D687000165
:1041E00000019B51100B11E001010101CF51400B67
:1041F0000CE000019BA706D00101D68B0101030E44
:10420000656F03D00101010E656F1AD001014FA740
:1042100004D00101656B0101569701014BA50DD03A
:104220000101020E656F00018C9F00018D9D000150
:104230008D9F00018F910101726B0001C49700D026
:1042400012000101CFB30AD00101DC950101DC9914
:104250000101DC970101666BB2D008D0000199B171
:1042600005D00101DC810101030E666F0101665179
:10427000030A01E174D0010A49E0030A2EE0010AB1
:1042800001E09DD00001C1810101596B5A6B010110
:10429000766B01010101DC51040B0DE0010101010C
:1042A000DC51100B08E00101DC990101DC8B0101FC
:1042B000010E666F11D001010101DC51040B0CE00D
:1042C00001010101DC51080B07E00101DC9701014C
:1042D000DC8B0101020E666F72D001010101DC511D
:1042E000040B05E001010101D851400B08E0010178
:1042F000DCB502D00101DC9B0101666B06D0000138
:10430000C19142C159F143C15AF159D00101010192
:10431000DC51040B05E001010101D851400B08E01C
:104320000101DCB502D00101DC9B0101666B16D0F6
:104330000101D8BF08D00101DC930001C181010156
:10434000596B5A6B0BD00101D8AF08D00101DC8347
:104350000001C19142C159F143C15AF130D001016C
:1043600001014B51040B23E001010101DC51010B60
:104370001EE101010101DC51200B09E000010001F7
:104380009351200B04E10101010E666F10D0010171
:104390000101DC51200B09E0000100019351400BA9
:1043A00004E10101020E666F02D00101666B00019B
:1043B000C1810101596B5A6B0101766B00D012006B
:1043C0000101CFB30AD00101DD950101DD990101A1
:1043D000DD970101676BB2D008D0000199B305D019
:1043E0000101DD810101030E676F01016751030ABD
:1043F00001E174D0010A49E0030A2EE0010A01E05C
:104400009DD00001C18301015B6B5C6B0101776B87
:1044100001010101DD51040B0DE001010101DD513C
:10442000100B08E00101DD990101DD8B0101010E96
:10443000676F11D001010101DD51040B0CE0010196
:104440000101DD51080B07E00101DD970101DD8B62
:104450000101020E676F72D001010101DD51040BF1
:1044600005E001010101D851400B08E00101DDB573
:1044700002D00101DD9B0101676B06D00001C193F1
:1044800044C15BF145C15CF159D001010101DD512D
:10449000040B05E001010101D851400B08E00101C6
:1044A000DDB502D00101DD9B0101676B16D0010172
:1044B000D8BF08D00101DD930001C18301015B6B0E
:1044C0005C6B0BD00101D8AF08D00101DD83000186
:1044D000C19344C15BF145C15CF130D001010101E0
:1044E0004B51040B23E001010101DD51010B1EE1E1
:1044F00001010101DD51200B09E000010001935190
:10450000800B04E10101010E676F10D00101010170
:10451000DD51200B09E0000100019451010B04E181
:104520000101020E676F02D00101676B0001C183B8
:1045300001015B6B5C6B0101776B00D01200010124
:10454000CFB30AD00101DE950101DE990101DE97AA
:104550000101686BB2D008D0000199B505D0010106
:10456000DE810101030E686F01016851030A01E158
:1045700074D0010A49E0030A2EE0010A01E09DD04F
:104580000001C18501015D6B5E6B0101786B01016A
:104590000101DE51040B0DE001010101DE51100BA0
:1045A00008E00101DE990101DE8B0101010E686F57
:1045B00011D001010101DE51040B0CE001010101E8
:1045C000DE51080B07E00101DE970101DE8B0101DE
:1045D000020E686F72D001010101DE51040B05E08B
:1045E00001010101D851400B08E00101DEB502D004
:1045F0000101DE9B0101686B06D00001C19546C137
:104600005DF147C15EF159D001010101DE51040B9A
:1046100005E001010101D851400B08E00101DEB5C0
:1046200002D00101DE9B0101686B16D00101D8BFE9
:1046300008D00101DE930001C18501015D6B5E6B55
:104640000BD00101D8AF08D00101DE830001C19574
:1046500046C15DF147C15EF130D0010101014B510E
:10466000040B23E001010101DE51010B1EE10101F8
:104670000101DE51200B09E0000100019451020B01
:1046800004E10101010E686F10D001010101DE514A
:10469000200B09E0000100019451040B04E1010129
:1046A000020E686F02D00101686B0001C185010133
:1046B0005D6B5E6B0101786B00D012000101CFB31E
:1046C0000AD00101DF950101DF990101DF970101A6
:1046D000696BBAD008D0000199B705D00101DF811C
:1046E0000101030E696F01016951030A01E17AD0EA
:1046F000010A4DE0030A30E0010A01E0A5D0000103
:10470000C1870001C39501015F6B606B0101796B8B
:1047100001010101DF51040B0DE001010101DF5135
:10472000100B08E00101DF990101DF8B0101010E8F
:10473000696F11D001010101DF51040B0CE001018F
:104740000101DF51080B07E00101DF970101DF8B59
:104750000101020E696F78D00001C38501010101DA
:10476000DF51040B05E001010101D851400B08E0C5
:104770000101DFB502D00101DF9B0101696B06D0A9
:104780000001C19748C15FF149C160F15DD00001EE
:10479000C38501010101DF51040B05E001010101A5
:1047A000D851400B08E00101DFB502D00101DF9BC9
:1047B0000101696B16D00101D8BF08D00101DF9358
:1047C0000001C18701015F6B606B0BD00101D8AFA5
:1047D00008D00101DF830001C19748C15FF149C1E1
:1047E00060F132D0010101014B51040B23E00101C2
:1047F0000101DF51010B1EE101010101DF51200B1D
:1048000009E0000100019451080B04E10101010ECF
:10481000696F10D001010101DF51200B09E0000197
:1048200000019451100B04E10101020E696F02D0E6
:104830000101696B0001C3950001C18701015F6B34
:10484000606B0101796B00D012000101CFB303D07E
:1048500001016A6B81D1000199AD22D00101825121
:104860000FE1A1C197F1A2C198F10101DA9391C1C1
:1048700087F192C188F10101DA950101822B0FD0F5
:10488000010182050CE10101DAA302D00101DA8104
:104890000101DAA504D00101DA870001C49B08D028
:1048A0000101DA970101DA910001C48B0101826BE9
:1048B00001016A51020A01E129D1030A22E0010A39
:1048C00001E04AD101014FA90FD00101010E6A6F29
:1048D00001015689C9C1C3F1CAC1C4F10101D8930C
:1048E0000101D88F0001C3890101D8970101D89D2A
:1048F0000101D8990101D89B0101D89F01016E6B7C
:104900002BD101014FA907D001016A6B0101569912
:104910000001C39921D1000198B906D00101D887BF
:104920000101020E6A6F18D1000100019951200B9C
:1049300007E1000100019351100B02E10101D88948
:10494000000100019951200B0BE100010001995178
:10495000100B06E00101D88B0101020E6A6FFCD03A
:10496000010101015151800B12E000010001C3510E
:10497000100B0DE1C9C1C3F1CAC1C4F10101D89343
:104980000101D88F0001C38901016E6B20D00001A5
:1049900000019851400B10E101010101D851020BB7
:1049A0000BE0CDC1C7F1CEC1C8F10101D89501011D
:1049B000D89F0001C3990BD0000198AD08D0C9C1A0
:1049C000C3F1CAC1C4F10101D8930001C389010137
:1049D000D8A902D001016E6B01016E5129E10001DD
:1049E0000001C351100B24E0000199A90FD0CBC1E5
:1049F000C5F1CCC1C6F10101D991CDC1C7F1CEC17C
:104A0000C8F10101D89501016E2B11D001010101FE
:104A1000D851100B0CE1000100019951100B07E176
:104A200000010001C351100B02E00101D88F29D011
:104A300001016E0526E10101D9A102D00101D89F33
:104A4000000199B915D00101D88F01019551961136
:104A500004E001019507000E965B01018F51901152
:104A600004E001018F07000E905B01016E6B09D01D
:104A70000101D8A506D00101D88D0101D89F0101FF
:104A80006E6B01019551961112E101010101535123
:104A9000020B0DE18BC195F18CC196F193C189F1A7
:104AA00094C18AF10101D9970001C4890CD0000199
:104AB0000001C451100B07E001010101D951080B9D
:104AC00002E00001C49901018F51901112E101012E
:104AD00001015351010B0DE185C18FF186C190F1A8
:104AE0008DC183F18EC184F10101D9950001C38D7F
:104AF0000CD000010001C351400B07E0010101018E
:104B0000D951040B02E00001C39D26D001014FA939
:104B100003D001016A6B1DD001014BA51AD0010120
:104B200056A915D0000199A904D00101010E6E6F9C
:104B300002D001016E6B0101010E6A6FCDC1C7F198
:104B4000CEC1C8F10101D8950001C38902D001018D
:104B50006A6B0001C39900D012000101CFB302D0EB
:104B600001016B6B01016B51030A01E1FAD0020AEA
:104B700062E0030A20E0020A01E009D1010101011B
:104B80004F51200B0FE001010101E051200B0AE021
:104B9000000100019351100B05E10101568B010149
:104BA000010E6B6F0001C3910001C3970101E099F1
:104BB0000101736BECD0000100019851010B05E07D
:104BC000000100019851080B0EE1000198B102D0DC
:104BD0000101E081000198B702D00101E0830101E9
:104BE000030E6B6FD4D0010101014F51200B05E181
:104BF000000100019351100B06E00101569B0101D9
:104C00006B6B0101736B0101735109E10101E099C3
:104C10000001C3970001C3910101732B0BD0010167
:104C2000730508E10101E0A705D00101010E6B6FDA
:104C30000101736BACD0000100019851010B05E03C
:104C4000000100019851080B0EE1000198B102D05B
:104C50000101E081000198B702D00101E083010168
:104C6000030E6B6F94D0010101014F51200B05E140
:104C7000000100019351100B0BE00101569B010153
:104C80006B6B030E0101996F9A6B0101E09B7FD062
:104C9000010173510DE1050E0101996F9A6B01013C
:104CA000E09B0001C3970001C3810101732B58D021
:104CB0000101730510E101010101E051200B0BE03E
:104CC000030E0101996F9A6B0101E09B0001C387FC
:104CD0000101732B45D0020E0101735D0DE101014D
:104CE0000101E051200B08E000019ABD02D0010152
:104CF000E0850101732B34D0030E0101735D15E1D2
:104D00000001C3B103D00101736B0ED00001C38752
:104D1000A3C199F1A4C19AF10101E09B0101E097BF
:104D20000101E0890101732B1BD0040E0101735DA9
:104D300017E10101620509E00101630506E00101D7
:104D4000640503E00101650503E10101730708D073
:104D50000101E0AB05D00101020E6B6F0101736B25
:104D600016D001014FAB04D00101569B01016B6BC2
:104D700001014BA503D00101010E6B6F0101736BA3
:104D80000001C3910001C3970101E09900D0120016
:104D90000101CFB302D001016C6B01016C51030A18
:104DA00001E1B3D0020A4CE0030A1EE0020A01E06E
:104DB000C7D0010101014F51400B0FE0010101017A
:104DC000E151200B0AE0000100019351100B05E1B5
:104DD0000101568D0101010E6C6F0001C3930101A9
:104DE000E1990101746BACD0010101014F51400BFD
:104DF00005E1000100019351100B0CE00101569DEB
:104E000001016C6B030E01019B6F9C6B0101E19B27
:104E10000101746B0101745107E10101E199000185
:104E2000C3930101742B0BD00101740508E101014A
:104E3000E1A705D00101010E6C6F0101746B80D0F8
:104E4000010101014F51400B05E001010101E15158
:104E5000200B05E1000100019351100B0BE0010153
:104E6000569D01016C6B030E01019B6F9C6B010150
:104E7000E19B66D0010174510BE1050E01019B6FAE
:104E80009C6B0101E19B0001C3830101742B3CD0A9
:104E9000010174050DE101010101E151200B08E060
:104EA00000019ABF02D00101E1850101742B2CD0D1
:104EB000020E0101745D0DE1B9C19BF1BAC19CF113
:104EC0000101E19B0101E1970101E1890101742BDD
:104ED0001BD0030E0101745D17E10101620509E0B9
:104EE0000101630506E00101640503E001016505B8
:104EF00003E10101740708D00101E1AB05D0010114
:104F0000020E6C6F0101746B1BD0010101014F5146
:104F1000400B09E001010101E151200B04E0010116
:104F2000569D01016C6B01014BA503D00101010EDF
:104F30006C6F0101746B0001C3930101E19900D012
:104F400012000101CFB302D001016D6B01016D515F
:104F5000030A01E1B3D0020A4CE0030A1EE0020A90
:104F600001E0C7D0010101014F51800B0FE00101A9
:104F70000101E251200B0AE0000100019351100BE6
:104F800005E10101568F0101010E6D6F0001C39F04
:104F90000101E2990101756BACD0010101014F5192
:104FA000800B05E1000100019351100B0CE00101A1
:104FB000569F01016D6B030E01019D6F9E6B0101F8
:104FC000E29B0101756B0101755107E10101E29955
:104FD0000001C39F0101752B0BD00101750508E18C
:104FE0000101E2A705D00101010E6D6F0101756B92
:104FF00080D0010101014F51800B05E00101010149
:10500000E251200B05E1000100019351100B0BE070
:105010000101569F01016D6B030E01019D6F9E6B97
:105020000101E29B66D0010175510BE1050E010102
:105030009D6F9E6B0101E29B0001C38F0101752BE7
:105040003CD0010175050DE101010101E251200B88
:1050500008E000019BBD02D00101E2850101752B32
:105060002CD0020E0101755D0DE1BBC19DF1BCC1EB
:105070009EF10101E29B0101E2970101E289010138
:10508000752B1BD0030E0101755D17E1010162054F
:1050900009E00101630506E00101640503E0010187
:1050A000650503E10101750708D00101E2AB05D0F8
:1050B0000101020E6D6F0101756B1BD00101010131
:1050C0004F51800B09E001010101E251200B04E086
:1050D0000101569F01016D6B01014BA503D0010138
:1050E000010E6D6F0101756B0001C39F0101E29913
:1050F00000D012000101DBB102D0F8D00CD00101C8
:10510000DB910101802B640E0101805D02E2EED093
:1051100002D00101806B010199519A1107E0010150
:105120009907000E9A5B0101E09B02D00101E08B20
:1051300001019B519C1107E001019B07000E9C5B44
:105140000101E19B02D00101E18B01019D519E1102
:1051500007E001019D07000E9E5B0101E29B02D06A
:105160000101E28B0101A751A81107E00101A70786
:10517000000EA85B0101D09502D00101D08501018C
:10518000A951AA1107E00101A907000EAA5B0101BC
:10519000D29502D00101D2850101AB51AC1107E0DB
:1051A0000101AB07000EAC5B0101D49502D00101F7
:1051B000D4850101AD51AE1107E00101AD07000E2C
:1051C000AE5B0101D69502D00101D6850101B75130
:1051D000B81107E00101B707000EB85B0101CF95D8
:1051E00002D00101CF850101C351C41107E00101C3
:1051F000C307000EC45B0101D89302D00101D8831C
:105200000101C751C81107E00101C707000EC85BC3
:105210000101D89502D00101D8850101C551C611FF
:1052200007E00101C507000EC65B0101D99102D05C
:105230000101D98101018351841107E00101830734
:10524000000E845B0101D99502D00101D9850101CD
:1052500089518A1107E001018907000E8A5B01016B
:10526000D99702D00101D98701019751981107E020
:1052700001019707000E985B0101DA9302D001014A
:10528000DA8301018751881107E001018707000EC9
:10529000885B0101DA9502D00101DA8501017A51BA
:1052A00005E001017A070101CF9702D00101CF8704
:1052B00001017B5105E001017B070101CF9902D07B
:1052C0000101CF8901017C5105E001017C07010149
:1052D000CF9B02D00101CF8B01017D5105E001017F
:0E52E0007D070101CF9D02D00101CF8D12008C
:0252EE009568C1
:1052F0008D828D848D868D888D8A8D8C96929694E4
:1053000096969698969A969C1200000197B302D0B2
:10531000E6D302D00001979395688D9283CF9CF0DD
:105320008D828D9483CF9DF08D848D9683CF9EF05A
:105330008D868D9883CF9FF08D8800019851010B49
:10534000026E00019C51010B025C10E0640E000132
:10535000A05D03E00001A02B08D0000100019C51DA
:1053600000019891010B01E0988102D00001A06B2F
:1053700000019851020B01E0010E026E00019C51E8
:10538000020B01E0010E025C10E0640E0001A15D61
:1053900003E00001A12B08D0000100019C51000195
:1053A0009893020B01E0988302D00001A16B0001E9
:1053B0009851040B01E0010E026E00019C51040B98
:1053C00001E0010E025C10E0640E0001A25D03E04A
:1053D0000001A22B08D0000100019C51000198950A
:1053E000040B01E0988502D00001A26B00019851E6
:1053F000080B01E0010E026E00019C51080B01E058
:10540000010E025C10E0640E0001A35D03E00001E8
:10541000A32B08D0000100019C5100019897080BB4
:1054200001E0988702D00001A36B00019851100B96
:1054300001E0010E026E00019C51100B01E0010E13
:10544000025C10E0640E0001A45D03E00001A42BE7
:1054500008D0000100019C5100019899100B01E057
:10546000988902D00001A46B00019851200B01E043
:10547000010E026E00019C51200B01E0010E025C46
:1054800010E0640E0001A55D03E00001A52B08D02B
:10549000000100019C510001989B200B01E0988BBA
:1054A00002D00001A56B00019851400B01E0010EF4
:1054B000026E00019C51400B01E0010E025C10E005
:1054C000640E0001A65D03E00001A62B08D00001D8
:1054D00000019C510001989D400B01E0988D02D085
:1054E0000001A66B00019851800B01E0010E026ED5
:1054F00000019C51800B01E0010E025C10E0640E83
:105500000001A75D03E00001A72B08D00001000106
:105510009C510001989F800B01E0988F02D0000100
:10552000A76B00019951010B026E00019D51010B07
:10553000025C10E0640E0001A85D03E00001A82BEE
:1055400008D0000100019D5100019991010B01E07B
:10555000998102D00001A86B00019951020B01E072
:10556000010E026E00019D51020B01E0010E025C72
:1055700010E0640E0001A95D03E00001A92B08D032
:10558000000100019D5100019993020B01E09983F4
:1055900002D00001A96B00019951040B01E0010E3A
:1055A000026E00019D51040B01E0010E025C10E04F
:1055B000640E0001AA5D03E00001AA2B08D00001DF
:1055C00000019D5100019995040B01E0998502D0DD
:1055D0000001AA6B00019951080B01E0010E026E57
:1055E00000019D51080B01E0010E025C10E0640E09
:1055F0000001AB5D03E00001AB2B08D0000100010E
:105600009D5100019997080B01E0998702D0000194
:10561000AB6B00019951100B01E0010E026E00010D
:105620009D51100B01E0010E025C10E0640E0001C0
:10563000AC5D03E00001AC2B08D0000100019D51DE
:1056400000019999100B01E0998902D00001AC6B1F
:1056500000019951200B01E0010E026E00019D51E5
:10566000200B01E0010E025C10E0640E0001AD5D54
:1056700003E00001AD2B08D0000100019D510001A5
:10568000999B200B01E0998B02D00001AD6B0001CA
:105690009951400B01E0010E026E00019D51400B3B
:1056A00001E0010E025C10E0640E0001AE5D03E05B
:1056B0000001AE2B08D0000100019D510001999D11
:1056C000400B01E0998D02D00001AE6B00019951B1
:1056D000800B01E0010E026E00019D51800B01E084
:1056E000010E025C10E0640E0001AF5D03E00001FA
:1056F000AF2B08D0000100019D510001999F800B44
:1057000001E0998F02D00001AF6B00019A51010BAB
:10571000026E00019E51010B025C10E0640E00015C
:10572000B05D03E00001B02B08D0000100019E51E4
:1057300000019A91010B01E09A8102D00001B06B47
:1057400000019A51020B01E0010E026E00019E5110
:10575000020B01E0010E025C10E0640E0001B15D7D
:1057600003E00001B12B08D0000100019E510001AF
:105770009A93020B01E09A8302D00001B16B000101
:105780009A51040B01E0010E026E00019E51040BC0
:1057900001E0010E025C10E0640E0001B25D03E066
:1057A0000001B22B08D0000100019E5100019A9522
:1057B000040B01E09A8502D00001B26B00019A51FE
:1057C000080B01E0010E026E00019E51080B01E082
:1057D000010E025C10E0640E0001B35D03E0000105
:1057E000B32B08D0000100019E5100019A97080BCD
:1057F00001E09A8702D00001B36B00019A51100BAF
:1058000001E0010E026E00019E51100B01E0010E3D
:10581000025C10E0640E0001B45D03E00001B42BF3
:1058200008D0000100019E5100019A99100B01E07F
:105830009A8902D00001B46B00019A51200B01E05B
:10584000010E026E00019E51200B01E0010E025C70
:1058500010E0640E0001B55D03E00001B52B08D037
:10586000000100019E5100019A9B200B01E09A8BE0
:1058700002D00001B56B00019A51400B01E0010E0E
:10588000026E00019E51400B01E0010E025C10E02F
:10589000640E0001B65D03E00001B62B08D00001E4
:1058A00000019E5100019A9D400B01E09A8D02D0AB
:1058B0000001B66B00019A51800B01E0010E026EEF
:1058C00000019E51800B01E0010E025C10E0640EAD
:1058D0000001B75D03E00001B72B08D00001000113
:1058E0009E5100019A9F800B01E09A8F02D0000127
:1058F000B76B00019B51010B026E00019F51010B20
:10590000025C10E0640E0001B85D03E00001B82BFA
:1059100008D0000100019F5100019B91010B01E0A3
:105920009B8102D00001B86B00019B51020B01E08A
:10593000010E026E00019F51020B01E0010E025C9C
:1059400010E0640E0001B95D03E00001B92B08D03E
:10595000000100019F5100019B93020B01E09B831A
:1059600003D00001010EB96F00019B51040B01E04F
:10597000010E026E00019F51040B01E0010E025C5A
:1059800010E0640E0001BA5D03E00001BA2B08D0FC
:10599000000100019F5100019B95040B01E09B85D4
:1059A00002D00001BA6B00019B51080B01E0010E0F
:1059B000026E00019F51080B01E0010E025C10E035
:1059C000640E0001BB5D03E00001BB2B08D00001A9
:1059D00000019F5100019B97080B01E09B8703D0BA
:1059E0000001030EBB6F00019B51100B01E0010E83
:1059F000026E00019F51100B01E0010E025C10E0ED
:105A0000640E0001BC5D03E00001BC2B08D0000166
:105A100000019F5100019B99100B01E09B8902D06E
:105A20000001BC6B00019B51200B01E0010E026ED6
:105A300000019F51200B01E0010E025C10E0640E9A
:105A40000001BD5D03E00001BD2B08D00001000195
:105A50009F5100019B9B200B01E09B8B02D000011A
:105A6000BD6B00019B51400B01E0010E026E000175
:105A70009F51400B01E0010E025C10E0640E00013A
:105A8000BE5D03E00001BE2B08D0000100019F5164
:105A900000019B9D400B01E09B8D02D00001BE6B7D
:105AA00000019B51800B01E0010E026E00019F512D
:105AB000800B01E0010E025C10E0640E0001BF5D8E
