:020000040000FA
:06000000B0EF08F0120051
:020006000000F8
:060008000FEF00F01200F2
:02000E001200DE
:08001800C3EF00F01200DACF83
:10002000E4FFE2CFDAFFE9CFE4FFEACFE4FFF6CF67
:10003000E4FFF7CFE4FFF5CFE4FFF3CFE4FFF4CF25
:10004000E4FFFACFE4FF00EE00F0020EE80403E361
:10005000EECFE4FFFBD700EE02F0020EE80403E36C
:10006000EECFE4FFFBD7E6529D50200B46E09E50BA
:10007000200B43E009EC08F00001A46F0001EA51F5
:10008000200B0EE10001A451665D0AE10001EA8B3C
:100090000001140E636F0001D595A4C06AF02DD045
:1000A0000001EA51800B29E1EA51200B26E0000112
:1000B000652B140E636F0001D59500016551EA6A46
:1000C0006A0FE96E000EEA22A4C0EFFF030E655D21
:1000D00003E13C0E6C5D06E0180E655D0EE13E0E20
:1000E0006C5D05E165C061F00001EA8F06D0616BCF
:1000F0000001EA9BEA9F0001656B9D50100B1FE019
:100100009E50100B1CE000016251D880A7550EE3F1
:10011000A751EA6A9C0FE96E000EEA22EF50E66EE4
:1001200079EC08F0E5520001A72B09D0ACA207D06A
:100130008B949494626BA76B9D980001EA9DE552A5
:1001400000EE03F0020EE80403E3E5CFEDFFFBD77A
:1001500000EE01F0020EE80403E3E5CFEDFFFBD76C
:10016000E5CFFAFFE5CFF4FFE5CFF3FFE5CFF5FFED
:10017000E5CFF7FFE5CFF6FFE5CFEAFFE5CFE9FFF3
:10018000E5CFDAFF1100D8CFE4FFE0CFE4FFE46E63
:10019000DACFE4FFE652F250200B31E0F250040BCC
:1001A0002EE0F294060ED66E0001A95104E0A907D4
:1001B0000001D49102D00001D4810001645104E017
:1001C00064070001D59B02D00001D58B0001AB5123
:1001D00004E0AB070001D59D02D00001D58D0001E0
:1001E000635104E063070001D59502D00001D58575
:1001F0000001AE5102E0AE0702D00001E88DE552E9
:10020000E5CFDAFFE550E5CFE0FFE5CFD8FF1000FE
:10021000D38CD38AD388D392D3909B8CD3A4FED78C
:100220007E6A7F6A926A9368C00E946E896A8A6A4F
:100230008B6AD50EE66E46EC08F0E552AC9CAC98A5
:10024000AC94AC8AAB96AB88AB9CAB8EB896B06ADC
:10025000330EAF6E9D8A800EE66EE66A010EE66E84
:10026000D4EC07F0E552E552E5528B8894988B94D4
:100270009494F1949F8A9F88D08EF28CF28E120013
:100280003CD80001DE91DE93DE95DE97DE9FDE9D99
:10029000DE99DE9BE191E193E195E197E199E19BA4
:1002A000E19DE19FE491E493E495E497E79BE79D6A
:1002B000E79F0001050E666F0001020ED36F00017B
:1002C000C80E646FC06BF5EC06F0F5EC06F0F5ECCB
:1002D00006F0F5EC06F00001A86BC80EAB6F00014C
:1002E000D59DEA85EA9BEA9F120092DFC9DF05D817
:1002F00033DA0DDB33DB98DBFAD719EC07F0E65283
:100300008B920001FE0E4BEC07F081CFDCF08B925C
:100310000001FD0E4BEC07F081CFDFF08B92000166
:10032000FB0E4BEC07F081CFE2F08B920001F70E51
:100330004BEC07F081CFE5F08B920001E969E9C051
:10034000E6FFF0EC06F08B828B920001DC51010B92
:10035000026EDD51010B025C0AE0DC51DD91010B04
:1003600001E0DD81DCB102D0DE8101D0DE91DC5123
:10037000020B01E0010E026EDD51020B01E0010EE5
:10038000025C0AE0DC51DD93020B01E0DD83DCB3AB
:1003900002D0DE8301D0DE93DC51040B01E0010EBC
:1003A000026EDD51040B01E0010E025C0AE0DC513B
:1003B000DD95040B01E0DD85DCB502D0DE8501D0E2
:1003C000DE95DC51080B01E0010E026EDD51080BD9
:1003D00001E0010E025C0AE0DC51DD97080B01E050
:1003E000DD87DCB702D0DE8701D0DE97DC51800BE1
:1003F00001E0010E026EDD51800B01E0010E025C96
:100400000AE0DC51DD9F800B01E0DD8FDCBF02D014
:10041000DE8F01D0DE9FDC51400B01E0010E026E49
:10042000DD51400B01E0010E025C0AE0DC51DD9D74
:10043000400B01E0DD8DDCBD02D0DE8D01D0DE9D04
:10044000DC51100B01E0010E026EDD51100B01E0DA
:10045000010E025C0AE0DC51DD99100B01E0DD8940
:10046000DCB902D0DE8901D0DE99DC51200B01E03D
:10047000010E026EDD51200B01E0010E025C0AE06C
:10048000DC51DD9B200B01E0DD8BDCBB02D0DE8B81
:1004900001D0DE9BDF51010B026EE051010B025CCB
:1004A0000AE0DF51E091010B01E0E081DFB102D011
:1004B000E18101D0E191DF51020B01E0010E026EFA
:1004C000E051020B01E0010E025C0AE0DF51E09313
:1004D000020B01E0E083DFB302D0E18301D0E193BE
:1004E000DF51040B01E0010E026EE051040B01E04C
:1004F000010E025C0AE0DF51E095040B01E0E085AB
:10050000DFB502D0E18501D0E195DF51080B01E0B4
:10051000010E026EE051080B01E0010E025C0AE0E0
:10052000DF51E097080B01E0E087DFB702D0E187F9
:1005300001D0E197DF51100B01E0010E026EE05196
:10054000100B01E0010E025C0AE0DF51E099100B94
:1005500001E0E089DFB902D0E18901D0E199DF5102
:10056000200B01E0010E026EE051200B01E0010EB4
:10057000025C0AE0DF51E09B200B01E0E08BDFBB77
:1005800002D0E18B01D0E19BDF51400B01E0010E75
:10059000026EE051400B01E0010E025C0AE0DF5107
:1005A000E09D400B01E0E08DDFBD02D0E18D01D088
:1005B000E19DDF51800B01E0010E026EE051800BE6
:1005C00001E0010E025C0AE0DF51E09F800B01E0D8
:1005D000E08FDFBF02D0E18F01D0E19FE251010B3C
:1005E000026EE351010B025C0AE0E251E391010B60
:1005F00001E0E381E2B102D0E48101D0E491E25173
:10060000020B01E0010E026EE351020B01E0010E4C
:10061000025C0AE0E251E393020B01E0E383E2B300
:1006200002D0E48301D0E493E251040B01E0010E17
:10063000026EE351040B01E0010E025C0AE0E2519C
:10064000E395040B01E0E385E2B502D0E48501D037
:10065000E495E251080B01E0010E026EE351080B34
:1006600001E0010E025C0AE0E251E397080B01E0B1
:10067000E387E2B702D0E48701D0E497E551200B8D
:1006800001E0010E026EE651200B01E0010E025C5A
:100690000AE0E551E69B200B01E0E68BE5BB02D0CA
:1006A000E78B01D0E79BE551400B01E0010E026EA4
:1006B000E651400B01E0010E025C0AE0E551E69DC7
:1006C000400B01E0E68DE5BD02D0E78D01D0E79D4E
:1006D000E551800B01E0010E026EE651800B01E056
:1006E000010E025C0AE0E551E69F800B01E0E68F17
:1006F000E5BF02D0E78F01D0E79FE251E499100BEC
:1007000001E0E489E251E49B200B01E0E48BE2513B
:10071000E49D400B01E0E48DE251E49F800B01E099
:10072000E48FE551E791010B01E0E781E551E793A3
:10073000020B01E0E783E551E795040B01E0E78553
:10074000E551E797080B01E0E787E551E799100BC2
:1007500001E0E789E55272D36CDB020EE126ABB211
:1007600053DB0001EA51200B18E0D551040B15E0D2
:10077000EA51800B12E1B1DBEA9BEA9F8B949494DF
:100780000001A82B640EA85D02E10001EA950001BA
:10079000656B626BA76B9D98B3D0EAAFB1D00001D7
:1007A000C80EAB6F0001D59D8B849494E89D000129
:1007B000070EAE6FDF6A190EDF5C0BE260DBEF50F5
:1007C000E66E92DBE552E750EF6E59DBEF6ADF2A07
:1007D000F2D70001656B0001EA9FEA9B0001616BA3
:1007E00085513E0A37E0020A01E08AD0DF6A010E35
:1007F000DB6A030EDF5C02E22DDBFBD7010EDB5070
:100800000001865D0EE0A82B640EA85D02E10001E8
:10081000EA9571DB030EDF5C02E273DBFBD7030EAC
:100820006AD0A86B0001EA8520DB3C0E9E6FDEC01B
:100830009FF0E1C0A0F0E4C0A1F0E7C0A2F0A36B7C
:10084000DF6A070EDF5C04E2FDDAA327DF2AF9D7AF
:10085000070E51D0DF6A010EDB6A180EDF5C02E280
:10086000F9DAFBD7010EDB5000019B5D0CE0A82BF1
:10087000640EA85D02E10001EA953DDB030EDF5C3A
:1008800039E23FDBFBD7A86B0001EA8586C0D6F0D2
:1008900087C0D7F088C0D8F089C0D9F08AC0DAF014
:1008A0008BC0DBF08CC0AFF08DC0B0F08EC0B1F06B
:1008B0008FC0B2F090C0B3F091C0B4F092C0B5F068
:1008C00093C0B6F094C0B7F095C0B8F096C0B9F038
:1008D00097C0BAF098C0BBF099C0BCF09AC0BDF008
:1008E000C4DA060E9E6F9F6BDF6A030EDF5C02E2C6
:1008F00008DBFBD7030E626FA76B0001EA8D9D88B2
:10090000020EE15C02E2E16AE552E16E97D291DA11
:10091000E6528B908B880001E881B8DAE891D6C066
:10092000E6FFBEDAE883B2DAE893D7C0E6FFB8DACA
:10093000E885ACDAE895D8C0E6FFB2DAE887A6DA4F
:10094000E897D9C0E6FFACDAE889A0DAE899DAC01E
:10095000E6FF46DA8B988B88E55270D26ADAE65267
:100960000001D551400B03E1EA51040B51E1D5518F
:10097000200B4EE049DA0001D66BD76BD86BD96BF0
:10098000DA6B010EDB6F0001FA0E646F0001D59B7C
:100990000001C05111E1BB6BBC6BBD6BB86BB96B97
:1009A000BA6BB56BB66BB76BB26BB36BB46BAF6B4B
:1009B000B06BB16BC02B2CD0C0052AE1B0C0AFF03A
:1009C000B1C0B0F0B2C0B1F0B3C0B2F0B4C0B3F0D7
:1009D000B5C0B4F0B6C0B5F0B7C0B6F0B8C0B7F0A7
:1009E000B9C0B8F0BAC0B9F0140E675D0AE2675139
:1009F000F76A980FF66E110EF7220800F5CFBAF0DD
:100A000001D0BA6B672B6751280802E2676BC06B95
:100A10008B908B880001E88B39DAE89BDBC0E6FF1E
:100A2000DFD98B98E5520AD204DA060EE1260001DE
:100A3000D4A169D00001050EA96F0001D491D35152
:100A4000020A22E0030A11E0010A30E1AFC0E6FF2A
:100A500030DAB2C0E6FF32DAB5C0E6FF34DAB8C049
:100A6000E6FF36DABBC0E6FF1DD0B0C0E6FF21DAF4
:100A7000B3C0E6FF23DAB6C0E6FF25DAB9C0E6FF69
:100A800027DABCC0E6FF0ED0B1C0E6FF12DAB4C070
:100A9000E6FF14DAB7C0E6FF16DABAC0E6FF18DAE6
:100AA000BDC0E6FFADD9050EE7CFDBFF1F0E8916EF
:100AB000010EFBD989808990020EF7D9898289922B
:100AC000030EF3D989848994040EEFD98986899617
:100AD000050EEBD9898889980001D351020A0FE0ED
:100AE000030A07E0010A0FE11F0E8916898A010E29
:100AF00004D01F0E8916898C020ED36F04D01F0EEE
:100B00008916898ED36B060EE15C02E2E16AE5523A
:100B1000E16E94D18ED9FE0EDB50300801E1A3D0F6
:100B2000FE0EDB50310871E0FE0EDB50320802E1B0
:100B30005B0EE9D0FE0EDB50330802E14F0EE3D02E
:100B4000FE0EDB50340802E1660EDDD0FE0EDB50F7
:100B5000350801E1A0D0FE0EDB50360844E0FE0E61
:100B6000DB50370802E1070ECED0FE0EDB5038080E
:100B700010E0FE0EDB50390802E16F0EC4D0FE0E0D
:100B8000DB50410802E1770EBED0FE0EDB5042087A
:100B900002E17F0EB8D0FE0EDB50620802E17C0E4F
:100BA000B2D0FE0EDB50430802E1390EACD0FE0E8F
:100BB000DB50630802E1580EA6D0FE0EDB5064083D
:100BC00002E15E0EA0D0FE0EDB50450802E1790E78
:100BD0009AD0FE0EDB50460802E1710E94D0FE0E54
:100BE000DB50470802E17D0E8ED0FE0EDB50480838
:100BF00002E1760E88D0FE0EDB50680802E1740E2A
:100C000082D0FE0EDB50490802E1060E7CD0FE0EBB
:100C1000DB50690802E1040E76D0FE0EDB504A0874
:100C200002E10E0E70D0FE0EDB506B083AE0FE0EB5
:100C3000DB504C0802E1380E66D0FE0EDB506C082B
:100C400002E1300E60D0FE0EDB504D0802E1370E9F
:100C50005AD0FE0EDB506E0802E1540E54D0FE0E48
:100C6000DB504F0802E13F0E4ED0FE0EDB506F0806
:100C700002E15C0E48D0FE0EDB50500802E1730E1C
:100C800042D0FE0EDB50720802E1500E3CD0FE0E48
:100C9000DB50530802E16D0E36D0FE0EDB507408B7
:100CA00002E1780E30D0FE0EDB50550802E13E0E18
:100CB0002AD0FE0EDB50750802E11C0E24D0FE0E79
:100CC000DB50590802E16E0E1ED0FE0EDB502E08DE
:100CD00002E1800E18D0FE0EDB50200807E0FE0E69
:100CE000DB50200803E0FE0EDB5002E1000E0BD0CB
:100CF000FE0EDB502D0802E1400E05D0FE0EDB504B
:100D00005F0801E1080E9AD094D8A66AFE0EDB5067
:100D1000A96EA680A85092D08CD8020EE126FE0EB5
:100D2000DBCFE6FFF1DFE552DE6EDD6ADECF02F0FB
:100D3000DDCF03F002C003F0026A02C0DEFF03C091
:100D4000DDFFFE0EDB28E66EDFDFE552DE26000E5D
:100D5000DD22DECF02F0DDCF03F002C0F3FF03C0DF
:100D6000F4FF020EE15C02E2E16AE552E16E66D058
:100D700060D8E652F250DF6EF29EF29CA66AA6841C
:100D8000FE0EDB50A96EFD0EDB50A86E550EA76E51
:100D9000AA0EA76EA682A1A8FED7A694DF50F26E77
:100DA000320EE66E90EC08F0E552E55247D041D89D
:100DB000FD0EDBCF03F003C002F0036A0250E66EC3
:100DC000FE0EDBCFE6FFD4DFE552E552FC0EDBCFB3
:100DD000E6FFFE0EDB28E66ECBDFE552E5522ED0B5
:100DE00028EC08F0E552DF6E1200FA0EE66E62ECB7
:100DF00008F0E552FA0EE66E62EC08F0E5521200D9
:100E000089DEE552E76E1200AB98AC9A0A0EE66EE8
:100E1000BEEC08F0E552AB88AC8A5FD80001EA9BD3
:100E2000EA9F8B9494940001656B626BA76B9D980D
:100E30001200D9CFE6FFE1CFD9FF1200E552E7CF8C
:100E4000D9FF1200DF50EA6A9C0FE96E000EEA2219
:100E5000EF50120049D8010EDBCFE7FFEF50E72635
:100E6000010EE7CFDBFFDF2A120084C09CF066C0D2
:100E70009DF0000112008B808B9000011200DF506A
:100E8000EA6A6A0FE96E000EEA221200E8C0E6FF85
:100E9000A7DF3BEF07F0E96FE66EA2DF8B8212005F
:100EA0009FDF8B988B8800011200DBCFE6FFF0EF0D
:100EB00006F0A6DF010EE7CFDBFF1200A1DF020E76
:100EC000E7CFDBFF12009CDF030EE7CFDBFF120052
:100ED00097DF040EE7CFDBFF1200AE50DF6EAE509F
:100EE000DF6EAE50DF6E1200DF50EA6A830FE96EEC
:100EF000000EEA221200B9DF150E9E6F9F6BDF6AAB
:0A0F00001200A0DF9F27DF2A120075
:060F0A00060EF66E000E5B
:100F1000F76E000EF86E00010900F550F06F090041
:100F2000F550F16F03E1F06701D03DD00900F550B5
:100F3000EB6F0900F550EC6F0900F550ED6F0900FB
:100F40000900F550E96E0900F550EA6E0900090044
:100F50000900F550EE6F0900F550EF6F0900090028
:100F6000F6CFF2F0F7CFF3F0F8CFF4F0EBC0F6FFE6
:100F7000ECC0F7FFEDC0F8FF0001EE5302E1EF53C4
:100F800007E00900F550EE6EEE07F8E2EF07F9D73B
:100F9000F2C0F6FFF3C0F7FFF4C0F8FF0001F0075E
:080FA000000EF15BBFD7120047
:080FA800D9CFE6FFDACFE6FF26
:100FB000E1CFD9FFE2CFDAFF3F0EC716C66AFD0EBA
:100FC000DB50C612FB0EDB50C712FC0EDB50030ACF
:100FD00009E0010A04E0020A06E1C78C04D0C78CCC
:100FE000C68801D0C688FD0EDB50050A06E0010A5E
:100FF00006E19486928A7E9803D0948601D09496D6
:101000009488949AC68AE552E5CFDAFFE7CFD9FFF4
:021010001200CC
:0E101200D9CFE6FFDACFE6FFE1CFD9FFE2CF7C
:10102000DAFFE652F20E0001F517ABAC03D0F591F2
:10103000ABB0F581ABB4F585ABB2F587AE50DF6EE2
:10104000DF50E552E552E5CFDAFFE7CFD9FF1200D6
:10105000D9CFE6FFDACFE6FFE1CFD9FFE2CFDAFF63
:10106000E652C950DF6E9E96C69EFD0EDB50C96EDD
:10107000C6AE02D0FF0E03D09EA6FED7000EE552EC
:0C108000E552E5CFDAFFE7CFD9FF120000
:04108C00D9CFE6FFD3
:10109000DACFE6FFE1CFD9FFE2CFDAFFFD0EDB507A
:1010A0007F0BD56ED76AD66AF294FD0EDBAE02D006
:1010B000F28A01D0F29AD58EE552E5CFDAFFE7CF7A
:0410C000D9FF120042
:0C10C400FF0EE350056EEF0E01D0F30E9E
:1010D000E76EE72E69EF08F00C0E046EE76AE72E64
:1010E0006FEF08F0042E6EEF08F0052E67EF08F0A2
:0210F0001200EC
:0E10F200D9CFE6FFDACFE6FFE1CFD9FFE2CF9C
:10110000DAFFACAC04D0AC900001F5B3AC80FD0EBE
:10111000DB50AD6EE552E5CFDAFFE7CFD9FF120025
:10112000FF0EE350056E480E01D04C0EE76EE72E21
:10113000FED7E76AE72EFED7052EF7D7000012008C
:10114000000EF36E00EE00F0020E01D81200EA600D
:1011500002D0EE6AFCD7F350E9601200EE6AFCD7C9
:1011600011EE00F021EE00F0F86A019C85EC07F02A
:0C11700007EC00F075EC01F0FBD712005A
:04117C00FF0EE3502F
:10118000056E1B0E00D001D0200EE76EE72EFED7B5
:08119000052EFAD700D0120071
:081198004572726F7220725360
:0D11A0002034383520506F72742E2E2E0032
:020000040030CA
:0100010008F6
:010002001AE3
:010003001EDE
:010005008179
:010006008178
:00000001FF
